{
  "_format": "hh-sol-artifact-1",
  "contractName": "ShadeFXPriceOracle",
  "sourceName": "contracts/ShadeFXPriceOracle.sol",
  "abi": [
    {
      "inputs": [
        {
          "internalType": "address",
          "name": "_oracleAddress",
          "type": "address"
        },
        {
          "internalType": "bool",
          "name": "_useChainlinkOracle",
          "type": "bool"
        },
        {
          "internalType": "address",
          "name": "_pythOracleAddress",
          "type": "address"
        },
        {
          "internalType": "bool",
          "name": "_usePythOracle",
          "type": "bool"
        },
        {
          "internalType": "address",
          "name": "initialOwner",
          "type": "address"
        }
      ],
      "stateMutability": "nonpayable",
      "type": "constructor"
    },
    {
      "inputs": [],
      "name": "EnforcedPause",
      "type": "error"
    },
    {
      "inputs": [],
      "name": "ExpectedPause",
      "type": "error"
    },
    {
      "inputs": [],
      "name": "InsufficientFee",
      "type": "error"
    },
    {
      "inputs": [],
      "name": "InvalidPrice",
      "type": "error"
    },
    {
      "inputs": [],
      "name": "InvalidPythPriceId",
      "type": "error"
    },
    {
      "inputs": [
        {
          "internalType": "address",
          "name": "owner",
          "type": "address"
        }
      ],
      "name": "OwnableInvalidOwner",
      "type": "error"
    },
    {
      "inputs": [
        {
          "internalType": "address",
          "name": "account",
          "type": "address"
        }
      ],
      "name": "OwnableUnauthorizedAccount",
      "type": "error"
    },
    {
      "inputs": [],
      "name": "PairAlreadyExists",
      "type": "error"
    },
    {
      "inputs": [],
      "name": "PairDoesNotExist",
      "type": "error"
    },
    {
      "inputs": [],
      "name": "PriceDeviationTooHigh",
      "type": "error"
    },
    {
      "inputs": [],
      "name": "PriceIdMismatch",
      "type": "error"
    },
    {
      "inputs": [],
      "name": "PythOracleNotEnabled",
      "type": "error"
    },
    {
      "inputs": [],
      "name": "PythOracleNotSet",
      "type": "error"
    },
    {
      "inputs": [],
      "name": "PythPriceIdNotSet",
      "type": "error"
    },
    {
      "anonymous": false,
      "inputs": [
        {
          "indexed": true,
          "internalType": "address",
          "name": "previousOwner",
          "type": "address"
        },
        {
          "indexed": true,
          "internalType": "address",
          "name": "newOwner",
          "type": "address"
        }
      ],
      "name": "OwnershipTransferred",
      "type": "event"
    },
    {
      "anonymous": false,
      "inputs": [
        {
          "indexed": true,
          "internalType": "string",
          "name": "pairKey",
          "type": "string"
        },
        {
          "indexed": false,
          "internalType": "string",
          "name": "baseCurrency",
          "type": "string"
        },
        {
          "indexed": false,
          "internalType": "string",
          "name": "quoteCurrency",
          "type": "string"
        },
        {
          "indexed": false,
          "internalType": "bytes32",
          "name": "pythPriceId",
          "type": "bytes32"
        },
        {
          "indexed": false,
          "internalType": "string",
          "name": "coingeckoId",
          "type": "string"
        }
      ],
      "name": "PairAdded",
      "type": "event"
    },
    {
      "anonymous": false,
      "inputs": [
        {
          "indexed": true,
          "internalType": "string",
          "name": "pairKey",
          "type": "string"
        },
        {
          "indexed": false,
          "internalType": "bytes32",
          "name": "pythPriceId",
          "type": "bytes32"
        }
      ],
      "name": "PairUpdated",
      "type": "event"
    },
    {
      "anonymous": false,
      "inputs": [
        {
          "indexed": false,
          "internalType": "address",
          "name": "account",
          "type": "address"
        }
      ],
      "name": "Paused",
      "type": "event"
    },
    {
      "anonymous": false,
      "inputs": [
        {
          "indexed": true,
          "internalType": "string",
          "name": "pairKey",
          "type": "string"
        },
        {
          "indexed": false,
          "internalType": "uint256",
          "name": "oldPrice",
          "type": "uint256"
        },
        {
          "indexed": false,
          "internalType": "uint256",
          "name": "newPrice",
          "type": "uint256"
        },
        {
          "indexed": false,
          "internalType": "uint256",
          "name": "timestamp",
          "type": "uint256"
        }
      ],
      "name": "PriceUpdated",
      "type": "event"
    },
    {
      "anonymous": false,
      "inputs": [
        {
          "indexed": false,
          "internalType": "address",
          "name": "account",
          "type": "address"
        }
      ],
      "name": "Unpaused",
      "type": "event"
    },
    {
      "inputs": [],
      "name": "MAX_PRICE_DEVIATION",
      "outputs": [
        {
          "internalType": "uint256",
          "name": "",
          "type": "uint256"
        }
      ],
      "stateMutability": "view",
      "type": "function"
    },
    {
      "inputs": [],
      "name": "PRICE_PRECISION",
      "outputs": [
        {
          "internalType": "uint256",
          "name": "",
          "type": "uint256"
        }
      ],
      "stateMutability": "view",
      "type": "function"
    },
    {
      "inputs": [],
      "name": "PRICE_STALENESS",
      "outputs": [
        {
          "internalType": "uint256",
          "name": "",
          "type": "uint256"
        }
      ],
      "stateMutability": "view",
      "type": "function"
    },
    {
      "inputs": [
        {
          "internalType": "uint256",
          "name": "",
          "type": "uint256"
        }
      ],
      "name": "activePairs",
      "outputs": [
        {
          "internalType": "string",
          "name": "",
          "type": "string"
        }
      ],
      "stateMutability": "view",
      "type": "function"
    },
    {
      "inputs": [
        {
          "internalType": "string",
          "name": "pairKey",
          "type": "string"
        },
        {
          "internalType": "string",
          "name": "baseCurrency",
          "type": "string"
        },
        {
          "internalType": "string",
          "name": "quoteCurrency",
          "type": "string"
        },
        {
          "internalType": "bytes32",
          "name": "pythPriceId",
          "type": "bytes32"
        },
        {
          "internalType": "uint256",
          "name": "maxOpenInterest",
          "type": "uint256"
        },
        {
          "internalType": "uint256",
          "name": "maxLeverage",
          "type": "uint256"
        }
      ],
      "name": "addPairWithPyth",
      "outputs": [],
      "stateMutability": "nonpayable",
      "type": "function"
    },
    {
      "inputs": [],
      "name": "getActivePairs",
      "outputs": [
        {
          "internalType": "string[]",
          "name": "",
          "type": "string[]"
        }
      ],
      "stateMutability": "view",
      "type": "function"
    },
    {
      "inputs": [
        {
          "internalType": "string",
          "name": "pairKey",
          "type": "string"
        }
      ],
      "name": "getPairConfig",
      "outputs": [
        {
          "components": [
            {
              "internalType": "string",
              "name": "baseCurrency",
              "type": "string"
            },
            {
              "internalType": "string",
              "name": "quoteCurrency",
              "type": "string"
            },
            {
              "internalType": "uint256",
              "name": "currentPrice",
              "type": "uint256"
            },
            {
              "internalType": "uint256",
              "name": "lastUpdateTime",
              "type": "uint256"
            },
            {
              "internalType": "uint256",
              "name": "minCollateral",
              "type": "uint256"
            },
            {
              "internalType": "uint256",
              "name": "maxCollateral",
              "type": "uint256"
            },
            {
              "internalType": "uint256",
              "name": "maxLeverage",
              "type": "uint256"
            },
            {
              "internalType": "uint256",
              "name": "feePercentage",
              "type": "uint256"
            },
            {
              "internalType": "bool",
              "name": "isActive",
              "type": "bool"
            },
            {
              "internalType": "uint256",
              "name": "maxOpenInterest",
              "type": "uint256"
            },
            {
              "internalType": "uint256",
              "name": "totalLongSize",
              "type": "uint256"
            },
            {
              "internalType": "uint256",
              "name": "totalShortSize",
              "type": "uint256"
            },
            {
              "internalType": "bytes32",
              "name": "pythPriceId",
              "type": "bytes32"
            },
            {
              "internalType": "string",
              "name": "coingeckoId",
              "type": "string"
            }
          ],
          "internalType": "struct ShadeFXPriceOracle.PairConfig",
          "name": "config",
          "type": "tuple"
        }
      ],
      "stateMutability": "view",
      "type": "function"
    },
    {
      "inputs": [
        {
          "internalType": "string",
          "name": "pairKey",
          "type": "string"
        }
      ],
      "name": "getPrice",
      "outputs": [
        {
          "internalType": "uint256",
          "name": "price",
          "type": "uint256"
        },
        {
          "internalType": "uint256",
          "name": "lastUpdateTime",
          "type": "uint256"
        },
        {
          "internalType": "bool",
          "name": "isActive",
          "type": "bool"
        }
      ],
      "stateMutability": "view",
      "type": "function"
    },
    {
      "inputs": [],
      "name": "oracleAddress",
      "outputs": [
        {
          "internalType": "address",
          "name": "",
          "type": "address"
        }
      ],
      "stateMutability": "view",
      "type": "function"
    },
    {
      "inputs": [],
      "name": "owner",
      "outputs": [
        {
          "internalType": "address",
          "name": "",
          "type": "address"
        }
      ],
      "stateMutability": "view",
      "type": "function"
    },
    {
      "inputs": [
        {
          "internalType": "string",
          "name": "",
          "type": "string"
        }
      ],
      "name": "pairs",
      "outputs": [
        {
          "internalType": "string",
          "name": "baseCurrency",
          "type": "string"
        },
        {
          "internalType": "string",
          "name": "quoteCurrency",
          "type": "string"
        },
        {
          "internalType": "uint256",
          "name": "currentPrice",
          "type": "uint256"
        },
        {
          "internalType": "uint256",
          "name": "lastUpdateTime",
          "type": "uint256"
        },
        {
          "internalType": "uint256",
          "name": "minCollateral",
          "type": "uint256"
        },
        {
          "internalType": "uint256",
          "name": "maxCollateral",
          "type": "uint256"
        },
        {
          "internalType": "uint256",
          "name": "maxLeverage",
          "type": "uint256"
        },
        {
          "internalType": "uint256",
          "name": "feePercentage",
          "type": "uint256"
        },
        {
          "internalType": "bool",
          "name": "isActive",
          "type": "bool"
        },
        {
          "internalType": "uint256",
          "name": "maxOpenInterest",
          "type": "uint256"
        },
        {
          "internalType": "uint256",
          "name": "totalLongSize",
          "type": "uint256"
        },
        {
          "internalType": "uint256",
          "name": "totalShortSize",
          "type": "uint256"
        },
        {
          "internalType": "bytes32",
          "name": "pythPriceId",
          "type": "bytes32"
        },
        {
          "internalType": "string",
          "name": "coingeckoId",
          "type": "string"
        }
      ],
      "stateMutability": "view",
      "type": "function"
    },
    {
      "inputs": [],
      "name": "paused",
      "outputs": [
        {
          "internalType": "bool",
          "name": "",
          "type": "bool"
        }
      ],
      "stateMutability": "view",
      "type": "function"
    },
    {
      "inputs": [],
      "name": "pythOracle",
      "outputs": [
        {
          "internalType": "contract IPyth",
          "name": "",
          "type": "address"
        }
      ],
      "stateMutability": "view",
      "type": "function"
    },
    {
      "inputs": [],
      "name": "renounceOwnership",
      "outputs": [],
      "stateMutability": "nonpayable",
      "type": "function"
    },
    {
      "inputs": [
        {
          "internalType": "address",
          "name": "_oracleAddress",
          "type": "address"
        },
        {
          "internalType": "bool",
          "name": "_useChainlinkOracle",
          "type": "bool"
        }
      ],
      "name": "setOracle",
      "outputs": [],
      "stateMutability": "nonpayable",
      "type": "function"
    },
    {
      "inputs": [
        {
          "internalType": "string",
          "name": "pairKey",
          "type": "string"
        },
        {
          "internalType": "bytes32",
          "name": "pythPriceId",
          "type": "bytes32"
        }
      ],
      "name": "setPairPythPriceId",
      "outputs": [],
      "stateMutability": "nonpayable",
      "type": "function"
    },
    {
      "inputs": [
        {
          "internalType": "address",
          "name": "_pythOracleAddress",
          "type": "address"
        },
        {
          "internalType": "bool",
          "name": "_usePythOracle",
          "type": "bool"
        }
      ],
      "name": "setPythOracle",
      "outputs": [],
      "stateMutability": "nonpayable",
      "type": "function"
    },
    {
      "inputs": [
        {
          "internalType": "address",
          "name": "newOwner",
          "type": "address"
        }
      ],
      "name": "transferOwnership",
      "outputs": [],
      "stateMutability": "nonpayable",
      "type": "function"
    },
    {
      "inputs": [
        {
          "internalType": "string",
          "name": "pairKey",
          "type": "string"
        },
        {
          "internalType": "uint256",
          "name": "newPrice",
          "type": "uint256"
        }
      ],
      "name": "updatePrice",
      "outputs": [],
      "stateMutability": "nonpayable",
      "type": "function"
    },
    {
      "inputs": [
        {
          "internalType": "string",
          "name": "pairKey",
          "type": "string"
        }
      ],
      "name": "updatePriceFromPyth",
      "outputs": [],
      "stateMutability": "nonpayable",
      "type": "function"
    },
    {
      "inputs": [
        {
          "internalType": "string[]",
          "name": "pairKeys",
          "type": "string[]"
        },
        {
          "internalType": "bytes[]",
          "name": "updateData",
          "type": "bytes[]"
        },
        {
          "internalType": "bytes32[]",
          "name": "priceIds",
          "type": "bytes32[]"
        },
        {
          "internalType": "uint64[]",
          "name": "publishTimes",
          "type": "uint64[]"
        }
      ],
      "name": "updatePriceFromPythWithData",
      "outputs": [],
      "stateMutability": "payable",
      "type": "function"
    },
    {
      "inputs": [],
      "name": "useChainlinkOracle",
      "outputs": [
        {
          "internalType": "bool",
          "name": "",
          "type": "bool"
        }
      ],
      "stateMutability": "view",
      "type": "function"
    },
    {
      "inputs": [],
      "name": "usePythOracle",
      "outputs": [
        {
          "internalType": "bool",
          "name": "",
          "type": "bool"
        }
      ],
      "stateMutability": "view",
      "type": "function"
    }
  ],
  "bytecode": "0x60803461015d57601f611e0f38819003918201601f19168301916001600160401b038311848410176101615780849260a09460405283398101031261015d5761004781610175565b9061005460208201610189565b9161006160408301610175565b9061006e60608401610189565b926001600160a01b039061008490608001610175565b1693841561014a575f80546001600160a01b031981168717825560405196916001600160a01b03909116907f8be0079c531659141344cd1fd0a4f28419497f9722a3daafe3b4186f6b6457e09080a3600380546001600160a81b0319166001600160a01b039384161791151560a01b60ff60a01b169190911790551680610130575b506004805460ff60a01b191691151560a01b60ff60a01b16919091179055611c7890816101978239f35b600480546001600160a01b0319169190911790555f610106565b631e4fbdf760e01b5f525f60045260245ffd5b5f80fd5b634e487b7160e01b5f52604160045260245ffd5b51906001600160a01b038216820361015d57565b5190811515820361015d5756fe60806040526004361015610011575f80fd5b5f5f3560e01c80630fab71e9146110c457806328119ffa1461103a578063377c5cbf14610eaa5780634a2c792f14610d7c5780634a432a4614610c045780634c04d28e146108c6578063524f3889146108505780635c52a028146106265780635c975abb14610601578063602baccc1461053157806365360843146104eb578063715018a6146104a457806386f7d5541461047e5780638da5cb5b1461045757806395082d251461043857806396f277b71461041c578063a5afa4c2146103f6578063a89ae4ba146103cd578063b3228b0d146103b0578063c7ea7e7d1461034e578063d3aa7d48146101bd578063f2fde38b146101425763f5d6ac9014610117575f80fd5b3461013f578060031936011261013f576004546040516001600160a01b039091168152602090f35b80fd5b503461013f57602036600319011261013f576004356001600160a01b038116908190036101b957610171611be5565b80156101a55781546001600160a01b03198116821783556001600160a01b03165f516020611c2c5f395f51905f528380a380f35b631e4fbdf760e01b82526004829052602482fd5b5080fd5b503461013f57604036600319011261013f576004356001600160401b0381116101b9576101ee9036906004016115e8565b602435906101fa611be5565b811561033f57604051602081835180838601835e81016001815203019020610222815461166d565b15610330576102927f6468a861debfcc416bded365e7ebfedd8074e8b2fc4ca699809d38ea63e0be59928285600c60209501556024608060018060a01b0360045416604051928380926396834ad360e01b82528b60048301525afa8891816102ff575b5061029d575b50506118df565b92604051908152a280f35b6102a690611a72565b90811561028b5780600860025f516020611c4c5f395f51905f52930191848354935542600382015501600160ff198254161790556102e3846118df565b926102f56040519283924291846118fb565b0390a25f8061028b565b61032291925060803d608011610329575b61031a81836115ae565b81019061184f565b905f610285565b503d610310565b63317f12fd60e21b8452600484fd5b632cd4ec9b60e01b8352600483fd5b503461013f5761035d36611769565b90610366611be5565b6001600160a01b031680610396575b506004805460ff60a01b191691151560a01b60ff60a01b1691909117905580f35b600480546001600160a01b0319169190911790555f610375565b503461013f578060031936011261013f57602060405161012c8152f35b503461013f578060031936011261013f576003546040516001600160a01b039091168152602090f35b503461013f578060031936011261013f57602060ff60045460a01c166040519015158152f35b503461013f578060031936011261013f57602060405160058152f35b503461013f578060031936011261013f5760206040516305f5e1008152f35b503461013f578060031936011261013f57546040516001600160a01b039091168152602090f35b503461013f578060031936011261013f57602060ff60035460a01c166040519015158152f35b503461013f578060031936011261013f576104bd611be5565b80546001600160a01b03198116825581906001600160a01b03165f516020611c2c5f395f51905f528280a380f35b503461013f576104fa36611769565b610502611be5565b600380546001600160a81b0319166001600160a01b039093169290921790151560a01b60ff60a01b1617905580f35b503461013f578060031936011261013f5760025461054e816115d1565b61055b60405191826115ae565b818152600283526020810191835f516020611c0c5f395f51905f52845b8383106105e457868587604051928392602084019060208552518091526040840160408260051b8601019392905b8282106105b557505050500390f35b919360019193955060206105d48192603f198a82030186528851611745565b96019201920185949391926105a6565b6001602081926105f3856116a5565b815201920192019190610578565b503461013f578060031936011261013f5760ff6020915460a01c166040519015158152f35b503461013f57602036600319011261013f576004356001600160401b0381116101b9576106579036906004016115e8565b90604051906106658261157e565b6060825260208201606090528060408301528060608301528060808301528060a08301528060c08301528060e0830152806101008301528061012083015280610140830152806101608301526101808201526101a00160609052604051818192516020819201835e8101600181520360200190206040516106e58161157e565b6106ee826116a5565b81526106fc600183016116a5565b91602082019283526002810154906040830191825260038101549060608401918252600481015460808501908152600582015460a08601908152600683015460c08701908152600784015460e08801908152600885015460ff1690610100890191151582526009860154926101208a01938452600a870154946101408b01958652600b880154966101608c01978852600c890154986101808d01998a52600d016107a5906116a5565b996101a08d019a8b52604051809e819e6020835251602083016101c090526101e083016107d191611745565b9051828203601f190160408401526107e99190611745565b9c5190606001525160808d01525160a08c01525160c08b01525160e08a015251610100890152511515610120880152516101408701525161016086015251610180850152516101a08401525190601f19838203016101c084015261084c91611745565b0390f35b503461013f57602036600319011261013f57600435906001600160401b03821161013f57606060208061088636600487016115e8565b604051928184925191829101835e8101600181520301902060028101549060ff600860038301549201541690604051928352602083015215156040820152f35b503461013f5760c036600319011261013f576004356001600160401b0381116101b9576108f79036906004016115e8565b6024356001600160401b038111610c00576109169036906004016115e8565b906044356001600160401b038111610bfc576109369036906004016115e8565b91606435610942611be5565b6040519060ff6008855193602081818901968088835e81016001815203019020015416610bed5760045460ff8160a01c1615610bde576001600160a01b03168015610bcf578115610bc057858786602460808395604051928380926396834ad360e01b82528a60048301525afa839181610b9f575b50610b825750908092935094825b8615159687610b78575b91878794928694604051916109e38361157e565b8c835260208301998a52604083019182526060830190815260808301624c4b40815260a08401915f19835260c085019360a435855260e08601958a8752610100810197151588526101208101986084358a5261014082019a8c8c528c61016084019d8e5261018084019e8f52506040519e8f610a606020826115ae565b526101a083019e8f52604051918291518091835e8101600181520360200190209d8e9151610a8e9083611911565b51610a9b91600101611911565b5160028d01555160038c01555160048b01555160058a0155516006890155516007880155600887019051151560ff198254169060ff1617905551600986015551600a85015551600b84015551600c8301555190600d0190610afb91611911565b610b52610b2f7f7832fc67469a2b0888fabc73fd3eb15207efecc5377f51122c02c9ed3797e7af95602094610b6a576118df565b95610b4560405195608087526080870190611745565b9085820385870152611745565b9060408401528583820391826060860152520190a280f35b610b7381611a13565b6118df565b81151597506109cf565b610b9190969192939496611a72565b9586156109c55750426109c5565b610bb991925060803d6080116103295761031a81836115ae565b905f6109b7565b632cd4ec9b60e01b8752600487fd5b63841196eb60e01b8752600487fd5b6339900fab60e11b8752600487fd5b63c9bb25eb60e01b8652600486fd5b8380fd5b8280fd5b503461013f57604036600319011261013f576004356001600160401b0381116101b957610c359036906004016115e8565b602435908115610d6e57604051602081835180838601835e8101600181520301902090610c62825461166d565b1561033057600c820154610d3c575b60028201918383549384610ce3575b610cb2925f516020611c4c5f395f51905f529594926008925542600382015501805460ff811615610cca5750506118df565b92610cc46040519283924291846118fb565b0390a280f35b60ff19166001179055610cdc81611a13565b5f8061028b565b9084610cee91611bc7565b606481029080820460641490151715610d2857610d0d856005926118c1565b11610d19578490610c80565b6369e2517960e11b8652600486fd5b634e487b7160e01b87526011600452602487fd5b6003546001600160a01b031633141580610d5a575b15610c71578380fd5b5083546001600160a01b0316331415610d51565b62bfc92160e01b8352600483fd5b503461013f57602036600319011261013f57600435906001600160401b03821161013f5750610daf9036906004016115e8565b604051818192516020819201835e810160018152036020019020610dd2816116a5565b90610ddf600182016116a5565b906002810154926003820154916004810154600582015460068301546007840154600885015460ff1690600986015492600a87015494600b88015496600c89015498600d01610e2d906116a5565b9a6040519d8e9d8e9c8d6101c081526101c001610e4991611745565b8d810360208f0152610e5a91611745565b9b6040015260608d015260808c015260a08b015260c08a015260e089015215156101008801526101208701526101408601526101608501526101808401528281036101a084015261084c91611745565b503461013f57602036600319011261013f576004356001600160401b0381116101b957610edb9036906004016115e8565b60045460ff8160a01c161561102b576001600160a01b0316801561101c57604051602081845180838701835e8101600181520301902090610f1c825461166d565b1561033057600c820154801561100d5760809060446040518094819363052571af60e51b8352600483015261012c60248301525afa801561100257610f68918591610fe3575b50611a72565b918215610fd55760028201918383549384610f9f575b55426003909101555f516020611c4c5f395f51905f529190610cb2906118df565b9084610faa91611bc7565b606481029080820460641490151715610d2857610fc9856005926118c1565b11610d19578490610f7e565b62bfc92160e01b8452600484fd5b610ffc915060803d6080116103295761031a81836115ae565b5f610f62565b6040513d86823e3d90fd5b63014fcd1760e31b8552600485fd5b63841196eb60e01b8352600483fd5b6339900fab60e11b8352600483fd5b503461013f57602036600319011261013f576004356002548110156101b9576002548110156110b057600282525f516020611c0c5f395f51905f5201908061109c5761084c611088836116a5565b604051918291602083526020830190611745565b634e487b7160e01b81526004819052602490fd5b634e487b7160e01b82526032600452602482fd5b5060803660031901126114e1576004356001600160401b0381116114e157366023820112156114e15780600401356110fb816115d1565b9161110960405193846115ae565b8183526024602084019260051b820101903682116114e15760248101925b82841061154f5785856024356001600160401b0381116114e15761114f90369060040161163d565b916044356001600160401b0381116114e15761116f90369060040161163d565b90939092906064356001600160401b0381116114e15761119390369060040161163d565b9060045460ff8160a01c1615611540576001600160a01b03169182156115315786865114801590611527575b6114e1576040519463d47eed4560e01b865260206004870152602086806111ea602482018986611798565b0381875afa9586156114a2575f966114f3575b508534106114e557833b156114e157604051631724ada560e31b8152606060048201529461123091606487019190611798565b8481036003190160248601528781526001600160fb1b0388116114e157918591604086948a60051b90818d6020830137018260208201600319602089850301016044890152520191905f905b8082106114ad575050505f939183809203925af180156114a25761148d575b508085913411611455575b505b8151811015611451578060051b60208184010151908483101561143d57850135604051602081845180838701835e81016001815203019020906112eb825461166d565b1561142e5780600c8301540361141f57608060018060a01b03600454169160446040518094819363052571af60e51b83526004830152603c60248301525afa8015611414576113409189916113f65750611a72565b9182156113e857600282019182549283611396575b5f516020611c4c5f395f51905f52928594926001979661137b93556003429101556118df565b9261138d6040519283924291846118fb565b0390a2016112a8565b6113a08486611bc7565b6064810290808204606414901517156113d4576113bf856005926118c1565b1115611355576369e2517960e11b8a5260048afd5b634e487b7160e01b8b52601160045260248bfd5b62bfc92160e01b8852600488fd5b61140e915060803d81116103295761031a81836115ae565b89610f62565b6040513d8a823e3d90fd5b636cb6748360e11b8852600488fd5b63317f12fd60e21b8852600488fd5b634e487b7160e01b87526032600452602487fd5b8480f35b818061146281933461182e565b818115611484575b3390f1156114795783856112a6565b6040513d85823e3d90fd5b506108fc61146a565b61149a9195505f906115ae565b5f938561129b565b6040513d5f823e3d90fd5b91945092509083356001600160401b03811691908290036114e157602081600193829352019401920191869286949261127c565b5f80fd5b62976f7560e21b5f5260045ffd5b9095506020813d60201161151f575b8161150f602093836115ae565b810103126114e15751948a6111fd565b3d9150611502565b50808714156111bf565b63841196eb60e01b5f5260045ffd5b6339900fab60e11b5f5260045ffd5b83356001600160401b0381116114e1576020916115738392602436918701016115e8565b815201930192611127565b6101c081019081106001600160401b0382111761159a57604052565b634e487b7160e01b5f52604160045260245ffd5b601f909101601f19168101906001600160401b0382119082101761159a57604052565b6001600160401b03811161159a5760051b60200190565b81601f820112156114e1578035906001600160401b03821161159a576040519261161c601f8401601f1916602001856115ae565b828452602083830101116114e157815f926020809301838601378301015290565b9181601f840112156114e1578235916001600160401b0383116114e1576020808501948460051b0101116114e157565b90600182811c9216801561169b575b602083101461168757565b634e487b7160e01b5f52602260045260245ffd5b91607f169161167c565b9060405191825f8254926116b88461166d565b808452936001811690811561172357506001146116df575b506116dd925003836115ae565b565b90505f9291925260205f20905f915b8183106117075750509060206116dd928201015f6116d0565b60209193508060019154838589010152019101909184926116ee565b9050602092506116dd94915060ff191682840152151560051b8201015f6116d0565b805180835260209291819084018484015e5f828201840152601f01601f1916010190565b60409060031901126114e1576004356001600160a01b03811681036114e1579060243580151581036114e15790565b90602083828152019060208160051b85010193835f915b8383106117bf5750505050505090565b909192939495601f198282030186528635601e19843603018112156114e1578301602081019190356001600160401b0381116114e15780360383136114e1576020828280600196849695859652848401375f828201840152601f01601f191601019801960194930191906117af565b9190820391821161183b57565b634e487b7160e01b5f52601160045260245ffd5b908160809103126114e15760405190608082016001600160401b0381118382101761159a5760405280518060070b81036114e157825260208101516001600160401b03811681036114e15760208301526040810151908160030b82036114e15760609160408401520151606082015290565b81156118cb570490565b634e487b7160e01b5f52601260045260245ffd5b602090604051918183925191829101835e81015f815203902090565b6040919493926060820195825260208201520152565b81519192916001600160401b03811161159a5761192e825461166d565b601f81116119ce575b506020601f821160011461197057819293945f92611965575b50508160011b915f199060031b1c1916179055565b015190505f80611950565b601f19821690835f52805f20915f5b8181106119b65750958360019596971061199e575b505050811b019055565b01515f1960f88460031b161c191690555f8080611994565b9192602060018192868b01518155019401920161197f565b825f5260205f20601f830160051c81019160208410611a09575b601f0160051c01905b8181106119fe5750611937565b5f81556001016119f1565b90915081906119e8565b600254600160401b81101561159a5760018101600255600254811015611a505760025f525f516020611c0c5f395f51905f5201906116dd91611911565b634e487b7160e01b5f52603260045260245ffd5b604d811161183b57600a0a90565b60408101518060030b915f831291825f14611b8c5750637fffffff19831461183b575160070b611aa963ffffffff845f0316611a64565b9081156118cb57600160ff1b81145f1983141661183b5705905b600883810391801582841316918312161761183b575f811315611b5557611aeb919250611a64565b9081810291818304149015171561183b57905b8115611b0657565b60405162461bcd60e51b815260206004820152602160248201527f507974685072696365436f6e7665727465723a20696e76616c696420707269636044820152606560f81b6064820152608490fd5b5f811215611b8357600160ff1b1461183b57611b77611b7d9260071901611a64565b906118c1565b90611afe565b50905090611afe565b9063ffffffff611ba1915160070b9216611a64565b81810291905f8212600160ff1b82141661183b57818305149015171561183b5790611ac3565b81811115611bdc5790611bd99161182e565b90565b611bd99161182e565b5f546001600160a01b03163303611bf857565b63118cdaa760e01b5f523360045260245ffdfe405787fa12a823e0f2b7631cc41b3ba8828b3321ca811111fa75cd3aa3bb5ace8be0079c531659141344cd1fd0a4f28419497f9722a3daafe3b4186f6b6457e0b9eff63454e8f3e7e3a0591926665ec3da6f4d9d4072630ddac1bb0b9836d506a164736f6c634300081b000a",
  "linkReferences": {},
  "deployedLinkReferences": {}
}