{
  "_format": "hh-sol-artifact-1",
  "contractName": "ShadeFXPerpDEX",
  "sourceName": "contracts/ShadeFXPerpDEX.sol",
  "abi": [
    {
      "inputs": [
        {
          "internalType": "address",
          "name": "_priceOracleAddress",
          "type": "address"
        },
        {
          "internalType": "address",
          "name": "initialOwner",
          "type": "address"
        }
      ],
      "stateMutability": "nonpayable",
      "type": "constructor"
    },
    {
      "inputs": [],
      "name": "EnforcedPause",
      "type": "error"
    },
    {
      "inputs": [],
      "name": "ExpectedPause",
      "type": "error"
    },
    {
      "inputs": [],
      "name": "InsufficientFee",
      "type": "error"
    },
    {
      "inputs": [],
      "name": "InvalidPrice",
      "type": "error"
    },
    {
      "inputs": [
        {
          "internalType": "address",
          "name": "owner",
          "type": "address"
        }
      ],
      "name": "OwnableInvalidOwner",
      "type": "error"
    },
    {
      "inputs": [
        {
          "internalType": "address",
          "name": "account",
          "type": "address"
        }
      ],
      "name": "OwnableUnauthorizedAccount",
      "type": "error"
    },
    {
      "inputs": [],
      "name": "PairDoesNotExist",
      "type": "error"
    },
    {
      "inputs": [],
      "name": "PriceDeviationTooHigh",
      "type": "error"
    },
    {
      "inputs": [],
      "name": "PriceIdMismatch",
      "type": "error"
    },
    {
      "inputs": [],
      "name": "PythOracleNotEnabled",
      "type": "error"
    },
    {
      "inputs": [],
      "name": "PythOracleNotSet",
      "type": "error"
    },
    {
      "inputs": [],
      "name": "PythPriceIdNotSet",
      "type": "error"
    },
    {
      "inputs": [],
      "name": "ReentrancyGuardReentrantCall",
      "type": "error"
    },
    {
      "inputs": [
        {
          "internalType": "address",
          "name": "token",
          "type": "address"
        }
      ],
      "name": "SafeERC20FailedOperation",
      "type": "error"
    },
    {
      "inputs": [],
      "name": "ZamaProtocolUnsupported",
      "type": "error"
    },
    {
      "anonymous": false,
      "inputs": [
        {
          "indexed": false,
          "internalType": "uint256",
          "name": "newClosingFeeBP",
          "type": "uint256"
        }
      ],
      "name": "ClosingFeeUpdated",
      "type": "event"
    },
    {
      "anonymous": false,
      "inputs": [],
      "name": "EmergencyPause",
      "type": "event"
    },
    {
      "anonymous": false,
      "inputs": [],
      "name": "EmergencyUnpause",
      "type": "event"
    },
    {
      "anonymous": false,
      "inputs": [
        {
          "indexed": true,
          "internalType": "address",
          "name": "to",
          "type": "address"
        },
        {
          "indexed": false,
          "internalType": "uint256",
          "name": "amount",
          "type": "uint256"
        }
      ],
      "name": "EmergencyWithdraw",
      "type": "event"
    },
    {
      "anonymous": false,
      "inputs": [
        {
          "indexed": true,
          "internalType": "address",
          "name": "provider",
          "type": "address"
        },
        {
          "indexed": false,
          "internalType": "uint256",
          "name": "amount",
          "type": "uint256"
        },
        {
          "indexed": false,
          "internalType": "uint256",
          "name": "shares",
          "type": "uint256"
        }
      ],
      "name": "LiquidityAdded",
      "type": "event"
    },
    {
      "anonymous": false,
      "inputs": [
        {
          "indexed": true,
          "internalType": "address",
          "name": "provider",
          "type": "address"
        },
        {
          "indexed": false,
          "internalType": "uint256",
          "name": "amount",
          "type": "uint256"
        },
        {
          "indexed": false,
          "internalType": "uint256",
          "name": "shares",
          "type": "uint256"
        }
      ],
      "name": "LiquidityRemoved",
      "type": "event"
    },
    {
      "anonymous": false,
      "inputs": [
        {
          "indexed": false,
          "internalType": "uint256",
          "name": "newMaxLeverage",
          "type": "uint256"
        }
      ],
      "name": "MaxLeverageUpdated",
      "type": "event"
    },
    {
      "anonymous": false,
      "inputs": [
        {
          "indexed": true,
          "internalType": "uint256",
          "name": "positionId",
          "type": "uint256"
        },
        {
          "indexed": true,
          "internalType": "string",
          "name": "pairKey",
          "type": "string"
        },
        {
          "indexed": false,
          "internalType": "bool",
          "name": "isLong",
          "type": "bool"
        },
        {
          "indexed": false,
          "internalType": "uint256",
          "name": "positionSize",
          "type": "uint256"
        }
      ],
      "name": "OpenInterestUpdated",
      "type": "event"
    },
    {
      "anonymous": false,
      "inputs": [
        {
          "indexed": false,
          "internalType": "uint256",
          "name": "newOpeningFeeBP",
          "type": "uint256"
        }
      ],
      "name": "OpeningFeeUpdated",
      "type": "event"
    },
    {
      "anonymous": false,
      "inputs": [
        {
          "indexed": true,
          "internalType": "uint256",
          "name": "orderId",
          "type": "uint256"
        },
        {
          "indexed": true,
          "internalType": "address",
          "name": "trader",
          "type": "address"
        },
        {
          "indexed": false,
          "internalType": "string",
          "name": "pairKey",
          "type": "string"
        }
      ],
      "name": "OrderCancelled",
      "type": "event"
    },
    {
      "anonymous": false,
      "inputs": [
        {
          "indexed": true,
          "internalType": "uint256",
          "name": "orderId",
          "type": "uint256"
        },
        {
          "indexed": true,
          "internalType": "address",
          "name": "trader",
          "type": "address"
        },
        {
          "indexed": true,
          "internalType": "string",
          "name": "pairKey",
          "type": "string"
        },
        {
          "indexed": false,
          "internalType": "enum ShadeFXPerpDEX.OrderType",
          "name": "orderType",
          "type": "uint8"
        },
        {
          "indexed": false,
          "internalType": "uint256",
          "name": "limitPrice",
          "type": "uint256"
        },
        {
          "indexed": false,
          "internalType": "uint256",
          "name": "collateralAmount",
          "type": "uint256"
        },
        {
          "indexed": false,
          "internalType": "uint256",
          "name": "leverage",
          "type": "uint256"
        }
      ],
      "name": "OrderCreated",
      "type": "event"
    },
    {
      "anonymous": false,
      "inputs": [
        {
          "indexed": true,
          "internalType": "uint256",
          "name": "orderId",
          "type": "uint256"
        },
        {
          "indexed": true,
          "internalType": "uint256",
          "name": "positionId",
          "type": "uint256"
        },
        {
          "indexed": true,
          "internalType": "address",
          "name": "trader",
          "type": "address"
        },
        {
          "indexed": false,
          "internalType": "string",
          "name": "pairKey",
          "type": "string"
        },
        {
          "indexed": false,
          "internalType": "uint256",
          "name": "executionPrice",
          "type": "uint256"
        }
      ],
      "name": "OrderExecuted",
      "type": "event"
    },
    {
      "anonymous": false,
      "inputs": [
        {
          "indexed": true,
          "internalType": "uint256",
          "name": "orderId",
          "type": "uint256"
        },
        {
          "indexed": true,
          "internalType": "address",
          "name": "trader",
          "type": "address"
        },
        {
          "indexed": false,
          "internalType": "string",
          "name": "pairKey",
          "type": "string"
        }
      ],
      "name": "OrderExpired",
      "type": "event"
    },
    {
      "anonymous": false,
      "inputs": [
        {
          "indexed": true,
          "internalType": "address",
          "name": "previousOwner",
          "type": "address"
        },
        {
          "indexed": true,
          "internalType": "address",
          "name": "newOwner",
          "type": "address"
        }
      ],
      "name": "OwnershipTransferred",
      "type": "event"
    },
    {
      "anonymous": false,
      "inputs": [
        {
          "indexed": true,
          "internalType": "string",
          "name": "pairKey",
          "type": "string"
        },
        {
          "indexed": false,
          "internalType": "string",
          "name": "baseCurrency",
          "type": "string"
        },
        {
          "indexed": false,
          "internalType": "string",
          "name": "quoteCurrency",
          "type": "string"
        },
        {
          "indexed": false,
          "internalType": "uint256",
          "name": "initialPrice",
          "type": "uint256"
        }
      ],
      "name": "PairAdded",
      "type": "event"
    },
    {
      "anonymous": false,
      "inputs": [
        {
          "indexed": true,
          "internalType": "string",
          "name": "pairKey",
          "type": "string"
        },
        {
          "indexed": false,
          "internalType": "bytes32",
          "name": "pythPriceId",
          "type": "bytes32"
        }
      ],
      "name": "PairUpdated",
      "type": "event"
    },
    {
      "anonymous": false,
      "inputs": [
        {
          "indexed": false,
          "internalType": "address",
          "name": "account",
          "type": "address"
        }
      ],
      "name": "Paused",
      "type": "event"
    },
    {
      "anonymous": false,
      "inputs": [
        {
          "indexed": true,
          "internalType": "uint256",
          "name": "positionId",
          "type": "uint256"
        },
        {
          "indexed": true,
          "internalType": "uint256",
          "name": "requestId",
          "type": "uint256"
        }
      ],
      "name": "PositionCloseRequested",
      "type": "event"
    },
    {
      "anonymous": false,
      "inputs": [
        {
          "indexed": true,
          "internalType": "uint256",
          "name": "positionId",
          "type": "uint256"
        },
        {
          "indexed": true,
          "internalType": "address",
          "name": "trader",
          "type": "address"
        },
        {
          "indexed": true,
          "internalType": "string",
          "name": "pairKey",
          "type": "string"
        },
        {
          "indexed": false,
          "internalType": "uint256",
          "name": "exitPrice",
          "type": "uint256"
        },
        {
          "indexed": false,
          "internalType": "int256",
          "name": "pnl",
          "type": "int256"
        },
        {
          "indexed": false,
          "internalType": "uint256",
          "name": "collateralReturned",
          "type": "uint256"
        },
        {
          "indexed": false,
          "internalType": "uint256",
          "name": "closingFee",
          "type": "uint256"
        }
      ],
      "name": "PositionClosed",
      "type": "event"
    },
    {
      "anonymous": false,
      "inputs": [
        {
          "indexed": true,
          "internalType": "uint256",
          "name": "positionId",
          "type": "uint256"
        },
        {
          "indexed": true,
          "internalType": "address",
          "name": "trader",
          "type": "address"
        },
        {
          "indexed": true,
          "internalType": "string",
          "name": "pairKey",
          "type": "string"
        },
        {
          "indexed": false,
          "internalType": "address",
          "name": "liquidator",
          "type": "address"
        },
        {
          "indexed": false,
          "internalType": "uint256",
          "name": "liquidationPrice",
          "type": "uint256"
        }
      ],
      "name": "PositionLiquidated",
      "type": "event"
    },
    {
      "anonymous": false,
      "inputs": [
        {
          "indexed": true,
          "internalType": "uint256",
          "name": "positionId",
          "type": "uint256"
        },
        {
          "indexed": true,
          "internalType": "address",
          "name": "trader",
          "type": "address"
        },
        {
          "indexed": true,
          "internalType": "string",
          "name": "pairKey",
          "type": "string"
        },
        {
          "indexed": false,
          "internalType": "uint256",
          "name": "entryPrice",
          "type": "uint256"
        },
        {
          "indexed": false,
          "internalType": "uint256",
          "name": "size",
          "type": "uint256"
        },
        {
          "indexed": false,
          "internalType": "uint256",
          "name": "collateral",
          "type": "uint256"
        },
        {
          "indexed": false,
          "internalType": "uint256",
          "name": "leverage",
          "type": "uint256"
        },
        {
          "indexed": false,
          "internalType": "uint256",
          "name": "openingFee",
          "type": "uint256"
        }
      ],
      "name": "PositionOpened",
      "type": "event"
    },
    {
      "anonymous": false,
      "inputs": [
        {
          "indexed": true,
          "internalType": "string",
          "name": "pairKey",
          "type": "string"
        },
        {
          "indexed": false,
          "internalType": "uint256",
          "name": "oldPrice",
          "type": "uint256"
        },
        {
          "indexed": false,
          "internalType": "uint256",
          "name": "newPrice",
          "type": "uint256"
        },
        {
          "indexed": false,
          "internalType": "uint256",
          "name": "timestamp",
          "type": "uint256"
        }
      ],
      "name": "PriceUpdated",
      "type": "event"
    },
    {
      "anonymous": false,
      "inputs": [
        {
          "indexed": true,
          "internalType": "uint256",
          "name": "positionId",
          "type": "uint256"
        },
        {
          "indexed": true,
          "internalType": "uint256",
          "name": "requestId",
          "type": "uint256"
        }
      ],
      "name": "StopLossSet",
      "type": "event"
    },
    {
      "anonymous": false,
      "inputs": [
        {
          "indexed": true,
          "internalType": "uint256",
          "name": "positionId",
          "type": "uint256"
        },
        {
          "indexed": false,
          "internalType": "uint256",
          "name": "stopLossPrice",
          "type": "uint256"
        },
        {
          "indexed": false,
          "internalType": "uint256",
          "name": "currentPrice",
          "type": "uint256"
        }
      ],
      "name": "StopLossTriggered",
      "type": "event"
    },
    {
      "anonymous": false,
      "inputs": [
        {
          "indexed": false,
          "internalType": "address",
          "name": "account",
          "type": "address"
        }
      ],
      "name": "Unpaused",
      "type": "event"
    },
    {
      "inputs": [],
      "name": "LIQUIDATION_BONUS",
      "outputs": [
        {
          "internalType": "uint256",
          "name": "",
          "type": "uint256"
        }
      ],
      "stateMutability": "view",
      "type": "function"
    },
    {
      "inputs": [],
      "name": "MAINTENANCE_MARGIN",
      "outputs": [
        {
          "internalType": "uint256",
          "name": "",
          "type": "uint256"
        }
      ],
      "stateMutability": "view",
      "type": "function"
    },
    {
      "inputs": [],
      "name": "MAX_PRICE_DEVIATION",
      "outputs": [
        {
          "internalType": "uint256",
          "name": "",
          "type": "uint256"
        }
      ],
      "stateMutability": "view",
      "type": "function"
    },
    {
      "inputs": [],
      "name": "MIN_COLLATERAL",
      "outputs": [
        {
          "internalType": "uint256",
          "name": "",
          "type": "uint256"
        }
      ],
      "stateMutability": "view",
      "type": "function"
    },
    {
      "inputs": [],
      "name": "PRICE_PRECISION",
      "outputs": [
        {
          "internalType": "uint256",
          "name": "",
          "type": "uint256"
        }
      ],
      "stateMutability": "view",
      "type": "function"
    },
    {
      "inputs": [],
      "name": "PRICE_STALENESS",
      "outputs": [
        {
          "internalType": "uint256",
          "name": "",
          "type": "uint256"
        }
      ],
      "stateMutability": "view",
      "type": "function"
    },
    {
      "inputs": [],
      "name": "USDC",
      "outputs": [
        {
          "internalType": "contract IERC20",
          "name": "",
          "type": "address"
        }
      ],
      "stateMutability": "view",
      "type": "function"
    },
    {
      "inputs": [
        {
          "internalType": "uint256",
          "name": "amount",
          "type": "uint256"
        }
      ],
      "name": "addLiquidity",
      "outputs": [],
      "stateMutability": "nonpayable",
      "type": "function"
    },
    {
      "inputs": [
        {
          "internalType": "string",
          "name": "pairKey",
          "type": "string"
        },
        {
          "internalType": "string",
          "name": "baseCurrency",
          "type": "string"
        },
        {
          "internalType": "string",
          "name": "quoteCurrency",
          "type": "string"
        },
        {
          "internalType": "uint256",
          "name": "initialPrice",
          "type": "uint256"
        },
        {
          "internalType": "uint256",
          "name": "maxOpenInterest",
          "type": "uint256"
        }
      ],
      "name": "addPair",
      "outputs": [],
      "stateMutability": "nonpayable",
      "type": "function"
    },
    {
      "inputs": [
        {
          "internalType": "string",
          "name": "pairKey",
          "type": "string"
        },
        {
          "internalType": "string",
          "name": "baseCurrency",
          "type": "string"
        },
        {
          "internalType": "string",
          "name": "quoteCurrency",
          "type": "string"
        },
        {
          "internalType": "uint256",
          "name": "initialPrice",
          "type": "uint256"
        },
        {
          "internalType": "uint256",
          "name": "maxOpenInterest",
          "type": "uint256"
        },
        {
          "internalType": "string",
          "name": "coingeckoId",
          "type": "string"
        }
      ],
      "name": "addPairWithCoinGecko",
      "outputs": [],
      "stateMutability": "nonpayable",
      "type": "function"
    },
    {
      "inputs": [
        {
          "internalType": "uint256",
          "name": "entryPrice",
          "type": "uint256"
        },
        {
          "internalType": "bool",
          "name": "isLong",
          "type": "bool"
        },
        {
          "internalType": "uint256",
          "name": "leverage",
          "type": "uint256"
        }
      ],
      "name": "calculateLiquidationPrice",
      "outputs": [
        {
          "internalType": "uint256",
          "name": "",
          "type": "uint256"
        }
      ],
      "stateMutability": "pure",
      "type": "function"
    },
    {
      "inputs": [
        {
          "components": [
            {
              "internalType": "uint256",
              "name": "positionId",
              "type": "uint256"
            },
            {
              "internalType": "address",
              "name": "trader",
              "type": "address"
            },
            {
              "internalType": "string",
              "name": "pairKey",
              "type": "string"
            },
            {
              "internalType": "ebool",
              "name": "encryptedDirection",
              "type": "bytes32"
            },
            {
              "internalType": "euint32",
              "name": "encryptedLeverage",
              "type": "bytes32"
            },
            {
              "internalType": "euint64",
              "name": "encryptedStopLoss",
              "type": "bytes32"
            },
            {
              "internalType": "uint256",
              "name": "entryPrice",
              "type": "uint256"
            },
            {
              "internalType": "uint256",
              "name": "size",
              "type": "uint256"
            },
            {
              "internalType": "uint256",
              "name": "collateral",
              "type": "uint256"
            },
            {
              "internalType": "uint256",
              "name": "leverage",
              "type": "uint256"
            },
            {
              "internalType": "uint256",
              "name": "timestamp",
              "type": "uint256"
            },
            {
              "internalType": "bool",
              "name": "isOpen",
              "type": "bool"
            },
            {
              "internalType": "bool",
              "name": "openInterestUpdated",
              "type": "bool"
            },
            {
              "internalType": "uint256",
              "name": "liquidationPrice",
              "type": "uint256"
            },
            {
              "internalType": "uint256",
              "name": "openingFee",
              "type": "uint256"
            },
            {
              "internalType": "uint256",
              "name": "closingFee",
              "type": "uint256"
            }
          ],
          "internalType": "struct ShadeFXPerpDEX.Position",
          "name": "position",
          "type": "tuple"
        },
        {
          "internalType": "uint256",
          "name": "currentPrice",
          "type": "uint256"
        },
        {
          "internalType": "bool",
          "name": "isLong",
          "type": "bool"
        }
      ],
      "name": "calculatePnL",
      "outputs": [
        {
          "internalType": "int256",
          "name": "pnl",
          "type": "int256"
        }
      ],
      "stateMutability": "pure",
      "type": "function"
    },
    {
      "inputs": [
        {
          "internalType": "uint256",
          "name": "orderId",
          "type": "uint256"
        }
      ],
      "name": "cancelOrder",
      "outputs": [],
      "stateMutability": "nonpayable",
      "type": "function"
    },
    {
      "inputs": [
        {
          "internalType": "uint256",
          "name": "positionId",
          "type": "uint256"
        }
      ],
      "name": "checkStopLoss",
      "outputs": [],
      "stateMutability": "nonpayable",
      "type": "function"
    },
    {
      "inputs": [
        {
          "internalType": "uint256",
          "name": "positionId",
          "type": "uint256"
        },
        {
          "internalType": "bool",
          "name": "isLong",
          "type": "bool"
        },
        {
          "internalType": "uint64",
          "name": "stopLossPrice",
          "type": "uint64"
        }
      ],
      "name": "checkStopLossWithDecryptedValues",
      "outputs": [],
      "stateMutability": "nonpayable",
      "type": "function"
    },
    {
      "inputs": [
        {
          "internalType": "uint256",
          "name": "positionId",
          "type": "uint256"
        }
      ],
      "name": "closePosition",
      "outputs": [],
      "stateMutability": "nonpayable",
      "type": "function"
    },
    {
      "inputs": [
        {
          "internalType": "uint256",
          "name": "",
          "type": "uint256"
        }
      ],
      "name": "closePositionRequests",
      "outputs": [
        {
          "internalType": "uint256",
          "name": "positionId",
          "type": "uint256"
        },
        {
          "internalType": "address",
          "name": "trader",
          "type": "address"
        },
        {
          "internalType": "uint256",
          "name": "closingFee",
          "type": "uint256"
        },
        {
          "internalType": "uint256",
          "name": "currentPrice",
          "type": "uint256"
        },
        {
          "internalType": "bool",
          "name": "isPending",
          "type": "bool"
        }
      ],
      "stateMutability": "view",
      "type": "function"
    },
    {
      "inputs": [
        {
          "internalType": "uint256",
          "name": "positionId",
          "type": "uint256"
        },
        {
          "internalType": "bool",
          "name": "isLong",
          "type": "bool"
        }
      ],
      "name": "closePositionWithDirection",
      "outputs": [],
      "stateMutability": "nonpayable",
      "type": "function"
    },
    {
      "inputs": [],
      "name": "closingFeeBP",
      "outputs": [
        {
          "internalType": "uint256",
          "name": "",
          "type": "uint256"
        }
      ],
      "stateMutability": "view",
      "type": "function"
    },
    {
      "inputs": [],
      "name": "confidentialProtocolId",
      "outputs": [
        {
          "internalType": "uint256",
          "name": "",
          "type": "uint256"
        }
      ],
      "stateMutability": "view",
      "type": "function"
    },
    {
      "inputs": [
        {
          "internalType": "string",
          "name": "pairKey",
          "type": "string"
        },
        {
          "internalType": "externalEbool",
          "name": "encryptedDirection",
          "type": "bytes32"
        },
        {
          "internalType": "bytes",
          "name": "inputProof",
          "type": "bytes"
        },
        {
          "internalType": "uint256",
          "name": "limitPrice",
          "type": "uint256"
        },
        {
          "internalType": "uint256",
          "name": "leverage",
          "type": "uint256"
        },
        {
          "internalType": "uint256",
          "name": "collateralAmount",
          "type": "uint256"
        },
        {
          "internalType": "uint256",
          "name": "expiryTime",
          "type": "uint256"
        }
      ],
      "name": "createLimitOrder",
      "outputs": [],
      "stateMutability": "nonpayable",
      "type": "function"
    },
    {
      "inputs": [
        {
          "internalType": "string",
          "name": "pairKey",
          "type": "string"
        },
        {
          "internalType": "externalEbool",
          "name": "encryptedDirection",
          "type": "bytes32"
        },
        {
          "internalType": "externalEuint32",
          "name": "encryptedLeverage",
          "type": "bytes32"
        },
        {
          "internalType": "bytes",
          "name": "inputProofDirection",
          "type": "bytes"
        },
        {
          "internalType": "bytes",
          "name": "inputProofLeverage",
          "type": "bytes"
        },
        {
          "internalType": "uint256",
          "name": "leverage",
          "type": "uint256"
        },
        {
          "internalType": "uint256",
          "name": "collateralAmount",
          "type": "uint256"
        }
      ],
      "name": "createMarketOrder",
      "outputs": [],
      "stateMutability": "nonpayable",
      "type": "function"
    },
    {
      "inputs": [],
      "name": "emergencyPause",
      "outputs": [],
      "stateMutability": "nonpayable",
      "type": "function"
    },
    {
      "inputs": [],
      "name": "emergencyUnpause",
      "outputs": [],
      "stateMutability": "nonpayable",
      "type": "function"
    },
    {
      "inputs": [
        {
          "internalType": "address",
          "name": "to",
          "type": "address"
        },
        {
          "internalType": "uint256",
          "name": "amount",
          "type": "uint256"
        }
      ],
      "name": "emergencyWithdraw",
      "outputs": [],
      "stateMutability": "nonpayable",
      "type": "function"
    },
    {
      "inputs": [
        {
          "internalType": "address",
          "name": "to",
          "type": "address"
        },
        {
          "internalType": "uint256",
          "name": "amount",
          "type": "uint256"
        }
      ],
      "name": "emergencyWithdrawETH",
      "outputs": [],
      "stateMutability": "nonpayable",
      "type": "function"
    },
    {
      "inputs": [
        {
          "internalType": "uint256",
          "name": "orderId",
          "type": "uint256"
        }
      ],
      "name": "executeLimitOrder",
      "outputs": [],
      "stateMutability": "nonpayable",
      "type": "function"
    },
    {
      "inputs": [
        {
          "internalType": "string",
          "name": "pairKey",
          "type": "string"
        }
      ],
      "name": "executePendingLimitOrders",
      "outputs": [],
      "stateMutability": "nonpayable",
      "type": "function"
    },
    {
      "inputs": [
        {
          "internalType": "string",
          "name": "pairKey",
          "type": "string"
        }
      ],
      "name": "getPairOrders",
      "outputs": [
        {
          "internalType": "uint256[]",
          "name": "",
          "type": "uint256[]"
        }
      ],
      "stateMutability": "view",
      "type": "function"
    },
    {
      "inputs": [
        {
          "internalType": "address",
          "name": "user",
          "type": "address"
        }
      ],
      "name": "getUserOrders",
      "outputs": [
        {
          "internalType": "uint256[]",
          "name": "",
          "type": "uint256[]"
        }
      ],
      "stateMutability": "view",
      "type": "function"
    },
    {
      "inputs": [
        {
          "internalType": "address",
          "name": "user",
          "type": "address"
        },
        {
          "internalType": "string",
          "name": "pairKey",
          "type": "string"
        }
      ],
      "name": "getUserPairPositions",
      "outputs": [
        {
          "internalType": "uint256[]",
          "name": "",
          "type": "uint256[]"
        }
      ],
      "stateMutability": "view",
      "type": "function"
    },
    {
      "inputs": [
        {
          "internalType": "address",
          "name": "user",
          "type": "address"
        }
      ],
      "name": "getUserPositions",
      "outputs": [
        {
          "internalType": "uint256[]",
          "name": "",
          "type": "uint256[]"
        }
      ],
      "stateMutability": "view",
      "type": "function"
    },
    {
      "inputs": [
        {
          "internalType": "uint256",
          "name": "positionId",
          "type": "uint256"
        }
      ],
      "name": "liquidatePosition",
      "outputs": [],
      "stateMutability": "nonpayable",
      "type": "function"
    },
    {
      "inputs": [],
      "name": "liquidityPool",
      "outputs": [
        {
          "internalType": "uint256",
          "name": "totalLiquidity",
          "type": "uint256"
        },
        {
          "internalType": "uint256",
          "name": "availableLiquidity",
          "type": "uint256"
        },
        {
          "internalType": "uint256",
          "name": "reservedLiquidity",
          "type": "uint256"
        },
        {
          "internalType": "uint256",
          "name": "totalFees",
          "type": "uint256"
        }
      ],
      "stateMutability": "view",
      "type": "function"
    },
    {
      "inputs": [],
      "name": "maxLeverage",
      "outputs": [
        {
          "internalType": "uint256",
          "name": "",
          "type": "uint256"
        }
      ],
      "stateMutability": "view",
      "type": "function"
    },
    {
      "inputs": [],
      "name": "nextOrderId",
      "outputs": [
        {
          "internalType": "uint256",
          "name": "",
          "type": "uint256"
        }
      ],
      "stateMutability": "view",
      "type": "function"
    },
    {
      "inputs": [],
      "name": "nextPositionId",
      "outputs": [
        {
          "internalType": "uint256",
          "name": "",
          "type": "uint256"
        }
      ],
      "stateMutability": "view",
      "type": "function"
    },
    {
      "inputs": [],
      "name": "openingFeeBP",
      "outputs": [
        {
          "internalType": "uint256",
          "name": "",
          "type": "uint256"
        }
      ],
      "stateMutability": "view",
      "type": "function"
    },
    {
      "inputs": [
        {
          "internalType": "uint256",
          "name": "",
          "type": "uint256"
        }
      ],
      "name": "orders",
      "outputs": [
        {
          "internalType": "uint256",
          "name": "orderId",
          "type": "uint256"
        },
        {
          "internalType": "address",
          "name": "trader",
          "type": "address"
        },
        {
          "internalType": "string",
          "name": "pairKey",
          "type": "string"
        },
        {
          "internalType": "enum ShadeFXPerpDEX.OrderType",
          "name": "orderType",
          "type": "uint8"
        },
        {
          "internalType": "enum ShadeFXPerpDEX.OrderStatus",
          "name": "status",
          "type": "uint8"
        },
        {
          "internalType": "ebool",
          "name": "encryptedDirection",
          "type": "bytes32"
        },
        {
          "internalType": "uint256",
          "name": "limitPrice",
          "type": "uint256"
        },
        {
          "internalType": "uint256",
          "name": "collateralAmount",
          "type": "uint256"
        },
        {
          "internalType": "uint256",
          "name": "leverage",
          "type": "uint256"
        },
        {
          "internalType": "uint256",
          "name": "timestamp",
          "type": "uint256"
        },
        {
          "internalType": "uint256",
          "name": "expiryTime",
          "type": "uint256"
        }
      ],
      "stateMutability": "view",
      "type": "function"
    },
    {
      "inputs": [],
      "name": "owner",
      "outputs": [
        {
          "internalType": "address",
          "name": "",
          "type": "address"
        }
      ],
      "stateMutability": "view",
      "type": "function"
    },
    {
      "inputs": [
        {
          "internalType": "string",
          "name": "",
          "type": "string"
        },
        {
          "internalType": "uint256",
          "name": "",
          "type": "uint256"
        }
      ],
      "name": "pairOrders",
      "outputs": [
        {
          "internalType": "uint256",
          "name": "",
          "type": "uint256"
        }
      ],
      "stateMutability": "view",
      "type": "function"
    },
    {
      "inputs": [
        {
          "internalType": "string",
          "name": "",
          "type": "string"
        },
        {
          "internalType": "address",
          "name": "",
          "type": "address"
        },
        {
          "internalType": "uint256",
          "name": "",
          "type": "uint256"
        }
      ],
      "name": "pairUserPositions",
      "outputs": [
        {
          "internalType": "uint256",
          "name": "",
          "type": "uint256"
        }
      ],
      "stateMutability": "view",
      "type": "function"
    },
    {
      "inputs": [],
      "name": "paused",
      "outputs": [
        {
          "internalType": "bool",
          "name": "",
          "type": "bool"
        }
      ],
      "stateMutability": "view",
      "type": "function"
    },
    {
      "inputs": [
        {
          "internalType": "uint256",
          "name": "",
          "type": "uint256"
        }
      ],
      "name": "positions",
      "outputs": [
        {
          "internalType": "uint256",
          "name": "positionId",
          "type": "uint256"
        },
        {
          "internalType": "address",
          "name": "trader",
          "type": "address"
        },
        {
          "internalType": "string",
          "name": "pairKey",
          "type": "string"
        },
        {
          "internalType": "ebool",
          "name": "encryptedDirection",
          "type": "bytes32"
        },
        {
          "internalType": "euint32",
          "name": "encryptedLeverage",
          "type": "bytes32"
        },
        {
          "internalType": "euint64",
          "name": "encryptedStopLoss",
          "type": "bytes32"
        },
        {
          "internalType": "uint256",
          "name": "entryPrice",
          "type": "uint256"
        },
        {
          "internalType": "uint256",
          "name": "size",
          "type": "uint256"
        },
        {
          "internalType": "uint256",
          "name": "collateral",
          "type": "uint256"
        },
        {
          "internalType": "uint256",
          "name": "leverage",
          "type": "uint256"
        },
        {
          "internalType": "uint256",
          "name": "timestamp",
          "type": "uint256"
        },
        {
          "internalType": "bool",
          "name": "isOpen",
          "type": "bool"
        },
        {
          "internalType": "bool",
          "name": "openInterestUpdated",
          "type": "bool"
        },
        {
          "internalType": "uint256",
          "name": "liquidationPrice",
          "type": "uint256"
        },
        {
          "internalType": "uint256",
          "name": "openingFee",
          "type": "uint256"
        },
        {
          "internalType": "uint256",
          "name": "closingFee",
          "type": "uint256"
        }
      ],
      "stateMutability": "view",
      "type": "function"
    },
    {
      "inputs": [],
      "name": "priceOracle",
      "outputs": [
        {
          "internalType": "contract IShadeFXPriceOracle",
          "name": "",
          "type": "address"
        }
      ],
      "stateMutability": "view",
      "type": "function"
    },
    {
      "inputs": [
        {
          "internalType": "uint256",
          "name": "shares",
          "type": "uint256"
        }
      ],
      "name": "removeLiquidity",
      "outputs": [],
      "stateMutability": "nonpayable",
      "type": "function"
    },
    {
      "inputs": [],
      "name": "renounceOwnership",
      "outputs": [],
      "stateMutability": "nonpayable",
      "type": "function"
    },
    {
      "inputs": [
        {
          "internalType": "uint256",
          "name": "_closingFeeBP",
          "type": "uint256"
        }
      ],
      "name": "setClosingFeeBP",
      "outputs": [],
      "stateMutability": "nonpayable",
      "type": "function"
    },
    {
      "inputs": [
        {
          "internalType": "uint256",
          "name": "_maxLeverage",
          "type": "uint256"
        }
      ],
      "name": "setMaxLeverage",
      "outputs": [],
      "stateMutability": "nonpayable",
      "type": "function"
    },
    {
      "inputs": [
        {
          "internalType": "uint256",
          "name": "_openingFeeBP",
          "type": "uint256"
        }
      ],
      "name": "setOpeningFeeBP",
      "outputs": [],
      "stateMutability": "nonpayable",
      "type": "function"
    },
    {
      "inputs": [
        {
          "internalType": "address",
          "name": "_oracleAddress",
          "type": "address"
        },
        {
          "internalType": "bool",
          "name": "_useChainlinkOracle",
          "type": "bool"
        }
      ],
      "name": "setOracle",
      "outputs": [],
      "stateMutability": "nonpayable",
      "type": "function"
    },
    {
      "inputs": [
        {
          "internalType": "string",
          "name": "pairKey",
          "type": "string"
        },
        {
          "internalType": "bytes32",
          "name": "pythPriceId",
          "type": "bytes32"
        }
      ],
      "name": "setPairPythPriceId",
      "outputs": [],
      "stateMutability": "nonpayable",
      "type": "function"
    },
    {
      "inputs": [
        {
          "internalType": "address",
          "name": "_pythOracleAddress",
          "type": "address"
        },
        {
          "internalType": "bool",
          "name": "_usePythOracle",
          "type": "bool"
        }
      ],
      "name": "setPythOracle",
      "outputs": [],
      "stateMutability": "nonpayable",
      "type": "function"
    },
    {
      "inputs": [
        {
          "internalType": "uint256",
          "name": "positionId",
          "type": "uint256"
        },
        {
          "internalType": "externalEuint64",
          "name": "encryptedStopLoss",
          "type": "bytes32"
        },
        {
          "internalType": "bytes",
          "name": "inputProof",
          "type": "bytes"
        }
      ],
      "name": "setStopLoss",
      "outputs": [],
      "stateMutability": "nonpayable",
      "type": "function"
    },
    {
      "inputs": [
        {
          "internalType": "uint256",
          "name": "",
          "type": "uint256"
        }
      ],
      "name": "stopLossRequests",
      "outputs": [
        {
          "internalType": "uint256",
          "name": "positionId",
          "type": "uint256"
        },
        {
          "internalType": "uint256",
          "name": "currentPrice",
          "type": "uint256"
        },
        {
          "internalType": "bool",
          "name": "isPending",
          "type": "bool"
        }
      ],
      "stateMutability": "view",
      "type": "function"
    },
    {
      "inputs": [
        {
          "internalType": "address",
          "name": "newOwner",
          "type": "address"
        }
      ],
      "name": "transferOwnership",
      "outputs": [],
      "stateMutability": "nonpayable",
      "type": "function"
    },
    {
      "inputs": [
        {
          "internalType": "uint256",
          "name": "positionId",
          "type": "uint256"
        },
        {
          "internalType": "bool",
          "name": "isLong",
          "type": "bool"
        }
      ],
      "name": "updateOpenInterest",
      "outputs": [],
      "stateMutability": "nonpayable",
      "type": "function"
    },
    {
      "inputs": [
        {
          "internalType": "string",
          "name": "pairKey",
          "type": "string"
        },
        {
          "internalType": "uint256",
          "name": "newPrice",
          "type": "uint256"
        }
      ],
      "name": "updatePrice",
      "outputs": [],
      "stateMutability": "nonpayable",
      "type": "function"
    },
    {
      "inputs": [
        {
          "internalType": "string",
          "name": "pairKey",
          "type": "string"
        }
      ],
      "name": "updatePriceFromPyth",
      "outputs": [],
      "stateMutability": "nonpayable",
      "type": "function"
    },
    {
      "inputs": [
        {
          "internalType": "string[]",
          "name": "pairKeys",
          "type": "string[]"
        },
        {
          "internalType": "bytes[]",
          "name": "updateData",
          "type": "bytes[]"
        },
        {
          "internalType": "bytes32[]",
          "name": "priceIds",
          "type": "bytes32[]"
        },
        {
          "internalType": "uint64[]",
          "name": "publishTimes",
          "type": "uint64[]"
        }
      ],
      "name": "updatePriceFromPythWithData",
      "outputs": [],
      "stateMutability": "payable",
      "type": "function"
    },
    {
      "inputs": [
        {
          "internalType": "address",
          "name": "",
          "type": "address"
        },
        {
          "internalType": "uint256",
          "name": "",
          "type": "uint256"
        }
      ],
      "name": "userOrders",
      "outputs": [
        {
          "internalType": "uint256",
          "name": "",
          "type": "uint256"
        }
      ],
      "stateMutability": "view",
      "type": "function"
    },
    {
      "inputs": [
        {
          "internalType": "address",
          "name": "",
          "type": "address"
        },
        {
          "internalType": "uint256",
          "name": "",
          "type": "uint256"
        }
      ],
      "name": "userPositions",
      "outputs": [
        {
          "internalType": "uint256",
          "name": "",
          "type": "uint256"
        }
      ],
      "stateMutability": "view",
      "type": "function"
    },
    {
      "stateMutability": "payable",
      "type": "receive"
    }
  ],
  "bytecode": "0x60806040523461028257604051601f615d5538819003918201601f19168301916001600160401b03831184841017610286578084926040948552833981010312610282576100586020610051836102b9565b92016102b9565b906100616102cd565b504660010361024b576100726102cd565b5061007b61029a565b5f81525f60208201525f60408201525b80517f9e7b61f58c47dc699ac88507c4f5bb9f121c03808c5676a8078fe583e464970080546001600160a01b03199081166001600160a01b039384161790915560208301517f9e7b61f58c47dc699ac88507c4f5bb9f121c03808c5676a8078fe583e4649701805483169184169190911790556040909201517f9e7b61f58c47dc699ac88507c4f5bb9f121c03808c5676a8078fe583e464970280549093169082161790915560015f55821680156102385760018054610100600160a81b03198116600895861b610100600160a81b031617909155604051931c6001600160a01b03167f8be0079c531659141344cd1fd0a4f28419497f9722a3daafe3b4186f6b6457e05f80a360056002555f600355601960045560016012819055601381905560158190556017556001600160a01b03169081156101e85750600b80546001600160a01b031916919091179055604051615a0e90816103478239f35b62461bcd60e51b815260206004820152602560248201527f536861646546583a20696e76616c6964207072696365206f7261636c65206164604482015264647265737360d81b6064820152608490fd5b631e4fbdf760e01b5f525f60045260245ffd5b4662aa36a7036102625761025d6102e7565b61008b565b46617a69036102735761025d6102e7565b6373cac13b60e01b5f5260045ffd5b5f80fd5b634e487b7160e01b5f52604160045260245ffd5b60405190606082016001600160401b0381118382101761028657604052565b51906001600160a01b038216820361028257565b6102d561029a565b905f82525f60208301525f6040830152565b6102ef6102cd565b506102f861029a565b73f0ffdc93b7e186bc2f8cb3daa75d86d1930a433d81527392c920834ec8941d2c77d188936e1f7a6f49c127602082015273be0e383937d564d7ff0bc3b46c51f0bf8d5c311a60408201529056fe6080604052600436101561001a575b3615610018575f80fd5b005b5f5f3560e01c80630fab71e914613c6a5780631155cd9814613bdf578063156858e514613b4f5780631a832c3414613b3157806322eb0e8714613b0657806324e8e354146135225780632630c12f146134f95780632752a765146131eb5780632a21c747146131885780632a58b3301461316a5780632a6bc2dd146130f8578063303e0028146130b55780633574d4c41461153a578063377c5cbf1461304357806338591db814612ed55780634196e15814612b695780634a432a4614612b035780634a4e3bd514612a77578063514fcac71461295757806351858e27146128d957806351c6590a1461273b578063532f6690146125de578063564dc4111461243c57806359d643a01461241e5780635a20bb2e146123745780635c975abb146123515780635cddb42a146122b75780635e1b4d991461226f57806363ab56ff146121d357806363c69f081461215157806364151f0f146120595780636536084314611ff6578063665a11ca14611fbf578063715018a614611f71578063856652e914611f1a5780638927b03014611eff578063899346c714611ee157806389a3027114611eb957806389d0b1b0146117425780638da5cb5b1461171557806395082d25146116f657806395ccea67146115db578063961238261461153f57806396f277b71461153a57806399fbab88146114275780639b7f375e146112d35780639c8f9f231461115c578063a126d60114610ee0578063a85c38ef14610dd4578063ae3302c214610db6578063b3228b0d14610d99578063b8950c5f14610acb578063c721946014610a97578063c7ea7e7d14610a1e578063cdddd4e51461063f578063d3127e631461055d578063d3aa7d48146104b5578063d79e8567146103db578063e26e7561146103bf578063e3aa11a814610378578063f2fde38b146102ef5763fa779648146102cf575061000e565b346102ec57806003193601126102ec576020604051624c4b408152f35b80fd5b50346102ec5760203660031901126102ec57610309614070565b610311614fc5565b6001600160a01b0381169081156103645760018054610100600160a81b03198116600893841b610100600160a81b031617909155901c6001600160a01b03165f5160206159625f395f51905f528380a380f35b631e4fbdf760e01b83526004839052602483fd5b50346102ec5760203660031901126102ec576040606091600435815260166020522080549060ff600260018301549201541690604051928352602083015215156040820152f35b50346102ec57806003193601126102ec57602060405160148152f35b50346102ec5760403660031901126102ec576103f5614070565b60243590610401614fc5565b61040f60ff60015416614a02565b814710610466576001600160a01b03169082818382821561045d575b839283928392f1156104525760205f5160206159825f395f51905f5291604051908152a280f35b6040513d84823e3d90fd5b506108fc61042b565b60405162461bcd60e51b815260206004820152602160248201527f536861646546583a20696e73756666696369656e74204554482062616c616e636044820152606560f81b6064820152608490fd5b50346102ec5760403660031901126102ec57806004356001600160401b03811161055a576104e7903690600401614022565b6104ef614fc5565b600b546001600160a01b0316803b156105585761052e8392918392604051948580948193631a754fa960e31b8352604060048401526044830190614236565b602435602483015203925af18015610452576105475750f35b8161055191613fae565b6102ec5780f35b505b50fd5b50346102ec5760203660031901126102ec5760043561057a614fc5565b600181106105fe57601481116105bc576020817fb0f01601e93ad2a8fc4106e97567bc037aa114741705be9d80570fd2afa7bf1b92600255604051908152a180f35b60405162461bcd60e51b815260206004820152601a6024820152790a6d0c2c8ca8cb07440d8caeccae4c2ceca40e8dede40d0d2ced60331b6044820152606490fd5b60405162461bcd60e51b8152602060048201526019602482015278536861646546583a206c6576657261676520746f6f206c6f7760381b6044820152606490fd5b50346102ec5760203660031901126102ec5760043561065c614d59565b610664614d77565b808252600c60205260408220600b81019161068260ff8454166146f1565b600b54604051630b8a540560e31b8152602060048201526002840194909391869085906001600160a01b031681806106bd602482018b6141b5565b03915afa938415610a135786946109ef575b506106eb61012c6106e460608701514261426e565b1115614784565b604084019384516101c06106fe856147cb565b9160c0830180518083115f146109d5575061072c6107216107349383519061426e565b60e0860151906142ab565b9051906142be565b915b0151908882820392128183128116918313901516176109c15785516101c061075d866147cb565b9160c0830180518083105f14610997575061072c61072161077f93835161426e565b915b0151908982820392128183128116918313901516176108e157600885015491605083029183159284810460501484171561098357606490048b8312928361096e575b508215610945575b5050156108f557600582029082820460051417156108e1576101406108a894610897948b6108227f4fc8f3e229bc96618bfd8d33bc83f3a93a6f79b7d39575de5e0f3839df7f1ef49996606461087c9704906142dc565b9384920180519060078801928354809310155f146108da575061084682825161426e565b90525b600754106108d15761085e815460075461426e565b6007555b54818110156108b2575b5050805460ff1916905533614f90565b6001808060a01b0391015416945195604051918280926148c4565b039020946040519182913383614d3e565b0390a46001815580f35b6108c7916108bf9161426e565b6006546142dc565b600655815f61086c565b8c600755610862565b9052610849565b634e487b7160e01b89526011600452602489fd5b60405162461bcd60e51b815260206004820152602260248201527f536861646546583a20706f736974696f6e206e6f74206c6971756964617461626044820152616c6560f01b6064820152608490fd5b8b82129250908261095a575b50505f806107cb565b6109659192506148a3565b10155f80610951565b81935061097a906148a3565b1015915f6107c3565b634e487b7160e01b8c52601160045260248cfd5b9061072c6109ab6109b6936109bb9561426e565b60e0870151906142ab565b6148a3565b91610781565b634e487b7160e01b88526011600452602488fd5b9061072c6109ab6109e9946109b69461426e565b91610736565b610a0c9194503d8088833e610a048183613fae565b8101906143b5565b925f6106cf565b6040513d88823e3d90fd5b50346102ec5760403660031901126102ec5780610a39614070565b610a416140e8565b90610a4a614fc5565b600b546001600160a01b031691823b15610a9257610a819284928360405180968195829463c7ea7e7d60e01b845260048401614977565b03925af18015610452576105475750f35b505050fd5b50346102ec5760203660031901126102ec57610ab1614d59565b610ab9614d77565b610ac4600435614ae5565b6001815580f35b50346102ec5760603660031901126102ec576004356044356001600160401b038111610d9557610aff903690600401614104565b610b0a929192614d59565b610b12614d77565b818452600c602052610b2d60ff600b604087200154166146f1565b818452600c602052610b4f60018060a01b03600160408720015416331461473a565b818452600c602052604084206001810154909390610b77906001600160a01b0316331461473a565b610b8760ff600b860154166146f1565b600b54604051630b8a540560e31b8152602060048201529290869084906001600160a01b03168180610bbf6024820160028c016141b5565b03915afa8015610a135761012c6106e46060610be993610bf0978b91610d7b575b5001514261426e565b3691613fec565b60018060a01b035f5160206159025f395f51905f52541692610c386040519263045fc19560e11b84526024356004850152336024850152608060448501526084840190614236565b938260209181888181996005606483015203925af1918215610d5c578492610d21575b505f5160206159a25f395f51905f52546001600160a01b0316803b15610d1d57846040518092630f8e573b60e21b8252818381610c9c338a600484016155fe565b03925af1908115610d12578591610cfd575b5050600590610cbd3084615716565b610cc73384615716565b610cd0836157b1565b01557f8a2d33101f68e2098e4dbdfb271363465207af7828fa6fccd3f0496825d7053d8280a36001815580f35b81610d0791613fae565b610a9257835f610cae565b6040513d87823e3d90fd5b8480fd5b935090506020833d602011610d54575b81610d3e60209383613fae565b81010312610d5057839251905f610c5b565b5f80fd5b3d9150610d31565b6040513d86823e3d90fd5b634e487b7160e01b5f52602160045260245ffd5b610d8f91503d808d833e610a048183613fae565b5f610be0565b8280fd5b50346102ec57806003193601126102ec57602060405161012c8152f35b50346102ec57806003193601126102ec576020600254604051908152f35b50346102ec5760203660031901126102ec576004358152600f6020526040812080549060018060a01b0360018201541660405191610e2083610e1981600285016141b5565b0384613fae565b60038101549260ff8085169460081c166004830154600584015490600685015492610e7360078701549560096008890154980154986040519b8c5260208c015261016060408c01526101608b0190614236565b976002811015610ecc5760608a01526004811015610eb857889950608089015260a088015260c087015260e08601526101008501526101208401526101408301520390f35b634e487b7160e01b8a52602160045260248afd5b634e487b7160e01b8b52602160045260248bfd5b50346102ec5760203660031901126102ec5760043590610efe614d59565b610f06614d77565b818152600c602052610f2160ff600b604084200154166146f1565b818152600c602052610f4360018060a01b03600160408420015416331461473a565b818152600c6020526040812060018060a01b03600b541692826040518095630b8a540560e31b8252602060048301528180610f8460248201600289016141b5565b03915afa801561115157600e948491611137575b50610fad61012c6106e460608401514261426e565b600183018054909390610fca906001600160a01b0316331461473a565b612710610fde6008830154600454906142ab565b049586910155604060155493610ff3856146c4565b60155554910151604051956001600160a01b039092169160a087018781106001600160401b03821117611123576040908152848852602080890194855281890192835260608901938452600160808a01818152888a52601490925291882098518955935190880180546001600160a01b0319166001600160a01b039290921691909117905551600287015551600386015551608494611097911515906004016148b3565b7f6247b5773245bcc55049ce27f18c12f8f73c911846c4057a2ade38ceb07650476040519380a362461bcd60e51b815260206004820152604060248201527f536861646546583a2055736520636c6f7365506f736974696f6e57697468446960448201527f72656374696f6e20776974682064656372797074656420646972656374696f6e6064820152fd5b634e487b7160e01b87526041600452602487fd5b61114b91503d8086833e610a048183613fae565b5f610f98565b6040513d85823e3d90fd5b50346102ec5760203660031901126102ec57600435611179614d59565b611181614d77565b801561129457338252600960205280604083205410611250576111d1906111d96006546111ae81846142ab565b906111bc60055480936142be565b948580936111cc84831115614992565b61426e565b60055561426e565b6006553383526009602052604083206111f382825461426e565b9055338352600a6020526040832061120c83825461426e565b90556112188233614f90565b60405191825260208201527f96cd817c6329656790ef8fba7675405193677d39619571282f5e21f3a98cd05960403392a26001815580f35b60405162461bcd60e51b815260206004820152601c60248201527b536861646546583a20696e73756666696369656e742073686172657360201b6044820152606490fd5b60405162461bcd60e51b8152602060048201526017602482015276536861646546583a20696e76616c69642073686172657360481b6044820152606490fd5b50346102ec5760603660031901126102ec576004356001600160401b038111611423576102006003198236030112611423576040519061131282613f92565b6004810135825260248101356001600160a01b038116810361141f5760208301526044810135906001600160401b03821161141f5761135a6101e49260043691840101614022565b6040840152606481013560608401526084810135608084015260a481013560a084015260c481013560c084015260e481013560e08401526101048101356101008401526101248101356101208401526101448101356101408401526113c261016482016140f7565b6101608401526113d561018482016140f7565b6101808401526101a48101356101a08401526101c48101356101c084015201356101e08201526044359182151583036102ec5760206114178460243585614a4d565b604051908152f35b8380fd5b5080fd5b50346102ec5760203660031901126102ec576004358152600c602052604090819020805460018201549251926001600160a01b0316918361146b81600284016141b5565b036114769085613fae565b60038101549060048101546005820154600683015460078401546008850154600986015491600a87015493600b88015495600c89015497600d8a015499600e01549a6040519e8f9e8f9e8f908152602001528d604081016102009052610200016114df91614236565b9c6060015260808d015260a08c015260c08b015260e08a015261010089015261012088015261014087015260ff8116151561016087015260081c60ff1615156101808601526101a08501526101c08401526101e08301520390f35b614162565b50346102ec5760203660031901126102ec5760043561155c614fc5565b60648111611596576020817f16a57ed1296106414fe439f3c3cba6fa93b12ef0f85791f1b5270420d70f5ec492600355604051908152a180f35b60405162461bcd60e51b815260206004820152601d60248201527f536861646546583a206f70656e696e672066656520746f6f20686967680000006044820152606490fd5b50346102ec5760403660031901126102ec576115f5614070565b60243590611601614fc5565b61160f60ff60015416614a02565b6040516370a0823160e01b81523060048201526020816024815f5160206158e25f395f51905f525afa8015610d5c57839185916116c1575b501061167c57602081611668845f5160206159825f395f51905f5294614f90565b6040519384526001600160a01b031692a280f35b60405162461bcd60e51b815260206004820152601d60248201527f536861646546583a20696e73756666696369656e742062616c616e63650000006044820152606490fd5b9150506020813d6020116116ee575b816116dd60209383613fae565b81010312610d50578290515f611647565b3d91506116d0565b50346102ec57806003193601126102ec5760206040516305f5e1008152f35b50346102ec57806003193601126102ec5760015460405160089190911c6001600160a01b03168152602090f35b50346102ec5760e03660031901126102ec576004356001600160401b03811161142357611773903690600401614022565b6064356001600160401b038111610d9557611792903690600401614104565b9091906084356001600160401b038111610d1d576117b4903690600401614104565b93906117be614d59565b6117c6614d77565b600b54604051630b8a540560e31b8152602060048201526001600160a01b0390911692908781806117fa602482018a614236565b0381875afa908115611e945761181f91610100918a91611e9f575b50015115156144e1565b611830624c4b4060c4351015614528565b6040516370a0823160e01b81523360048201526020816024815f5160206158e25f395f51905f525afa8015611e94578890611e60575b611875915060c435111561457e565b600160a435101580611e52575b61188b906145d5565b866040518094630b8a540560e31b82526020600483015281806118b1602482018b614236565b03915afa928315611e47578793611e1f575b506118f66118fe9184956118e260c061190697015160a435111561461d565b610be961012c6106e460608a01514261426e565b602435615617565b943691613fec565b60018060a01b035f5160206159025f395f51905f52541661194d6040519263045fc19560e11b84526044356004850152336024850152608060448501526084840190614236565b60209183888180946004606483015203925af1908115610d12578591611ded575b505f5160206159a25f395f51905f525485906001600160a01b0316803b1561142357816040518092630f8e573b60e21b82528183816119b1338a600484016155fe565b03925af1801561045257611dd8575b50506119cc3085615716565b6119d63385615716565b6119e03082615716565b6119ea3382615716565b6119f760c4353033614d92565b611a0560a43560c4356142ab565b93612710611a1760035460c4356142ab565b0491611a27866006541015614992565b611a30826157b1565b611a39816157b1565b611a4960a43560408601516142e9565b611a51615864565b91611a5c3084615716565b611a65836157b1565b6013549260408701519160405195611a7c87613f92565b8587523360208801528960408801526060870152608086015260a085015260c08401528660e084015260c43561010084015260a435610120840152426101408401526001610160840152876101808401526101a0830152826101c0830152866101e08301528652600c60205260408620908051825560018060a01b03602082015116600183019060018060a01b031660018060a01b0319825416179055604081015180519060018060401b038211611dc457611b3b600285015461417d565b601f8111611d80575b5060209089601f8411600114611cf6575f5160206159c25f395f51905f52948460409a9895611ce19c9a9895600e956101e09592611ceb575b50508160011b915f199060031b1c19161760028501555b606081015160038501556080810151600485015560a0810151600585015560c0810151600685015560e0810151600785015561010081015160088501556101208101516009850155610140810151600a850155611c1b600b8501611bff6101608401511515826148b3565b610180830151815461ff00191690151560081b61ff0016179055565b6101a0810151600c8501556101c0810151600d8501550151910155338852600d602052611c4d86892060135490614674565b8551602081865180838901835e8101600e81520301902060018060a01b0333165f52602052611c81865f2060135490614674565b611c8d8560065461426e565b600655611c9c856007546142dc565b600755611cab816008546142dc565b600855611cbf6013549687940151946146a8565b94611cd9604051928392339760a4359160c43591866149de565b0390a46146c4565b6013556001815580f35b015190505f80611b7d565b5090600285018a52808a20918a5b601f1985168110611d6857505f5160206159c25f395f51905f5294600185611ce19c9a9895600e956101e09560409e9c99601f19811610611d50575b505050811b016002850155611b94565b01515f1960f88460031b161c191690555f8080611d40565b91926020600181928685015181550194019201611d04565b600285018a5260208a20601f840160051c810160208510611dbd575b601f830160051c82018110611db2575050611b44565b8b8155600101611d9c565b5080611d9c565b634e487b7160e01b89526041600452602489fd5b81611de291613fae565b610d1d57845f6119c0565b90506020813d602011611e17575b81611e0860209383613fae565b81010312610d5057515f61196e565b3d9150611dfb565b61190693506118fe91611e3e6118f6923d808c833e610a048183613fae565b945091506118c3565b6040513d89823e3d90fd5b5060025460a4351115611882565b506020813d602011611e8c575b81611e7a60209383613fae565b81010312610d50576118759051611866565b3d9150611e6d565b6040513d8a823e3d90fd5b611eb391503d808c833e610a048183613fae565b5f611815565b50346102ec57806003193601126102ec5760206040515f5160206158e25f395f51905f528152f35b50346102ec57806003193601126102ec576020601354604051908152f35b50346102ec57806003193601126102ec576020611417614fef565b50346102ec5760403660031901126102ec57611f34614070565b6001600160a01b03168152601060205260408120805460243592908310156102ec576020611f628484614086565b90549060031b1c604051908152f35b50346102ec57806003193601126102ec57611f8a614fc5565b60018054610100600160a81b03198116909155819060081c6001600160a01b03165f5160206159625f395f51905f528280a380f35b50346102ec57806003193601126102ec57608060055460065460075460085491604051938452602084015260408301526060820152f35b50346102ec5760403660031901126102ec5780612011614070565b6120196140e8565b90612022614fc5565b600b546001600160a01b031691823b15610a9257610a8192849283604051809681958294636536084360e01b845260048401614977565b50346102ec5760a03660031901126102ec576004356001600160401b0381116114235761208a903690600401614022565b506024356001600160401b038111611423576120aa903690600401614022565b506044356001600160401b038111611423576120ca903690600401614022565b506120d3614fc5565b6040516120e1602082613fae565b526120ea614fc5565b60405162461bcd60e51b815260206004820152603960248201527f536861646546583a20557365206f7261636c6520636f6e7472616374206469726044820152786563746c7920666f7220436f696e4765636b6f20706169727360381b6064820152608490fd5b50346102ec5760203660031901126102ec576001600160a01b03612173614070565b168152601060205260408120604051918260208354918281520192825260208220915b8181106121bd576121b9856121ad81870382613fae565b604051918291826140af565b0390f35b8254845260209093019260019283019201612196565b50346102ec5760203660031901126102ec576004356121f0614fc5565b6064811161222a576020817f05a12110153e2e0cf3200973c047c19966fe918bfb162ffb35b1e1b954236fd092600455604051908152a180f35b60405162461bcd60e51b815260206004820152601d60248201527f536861646546583a20636c6f73696e672066656520746f6f20686967680000006044820152606490fd5b50346102ec5760403660031901126102ec57612289614070565b6001600160a01b03168152600d60205260408120805460243592908310156102ec576020611f628484614086565b50346102ec5760c03660031901126102ec576004356001600160401b038111611423576122e8903690600401614022565b506024356001600160401b03811161142357612308903690600401614022565b506044356001600160401b03811161142357612328903690600401614022565b5060a4356001600160401b03811161142357612348903690600401614022565b506120ea614fc5565b50346102ec57806003193601126102ec57602060ff600154166040519015158152f35b50346102ec5760403660031901126102ec5761238e614070565b6024356001600160401b038111610d955760206123b081923690600401614022565b604051928184925191829101835e8101600e8152030190209060018060a01b03165f5260205260405f20604051918260208354918281520192825260208220915b818110612408576121b9856121ad81870382613fae565b82548452602090930192600192830192016123f1565b50346102ec57806003193601126102ec576020600454604051908152f35b50346102ec5760603660031901126102ec576004356124596140e8565b6044356001600160401b038116919082900361141f576125299061247b614d59565b612483614d77565b838552600c60205261249e60ff600b604088200154166146f1565b838552600c6020526124c060018060a01b03600160408820015416331461473a565b838552600c6020526040852060018101548691906124e8906001600160a01b0316331461473a565b6124f860ff600b830154166146f1565b60018060a01b03600b54166040518080968194630b8a540560e31b83526020600484015260026024840191016141b5565b03915afa918215610d125785926125c2575b5061255061012c6106e460608501514261426e565b8490836125a1575b50612566575b836001815580f35b7f71eb555dfe348e03f41f29548eb076ac991c214e5877ce6b4d54994cb889efa59160408092015182519182526020820152a25f808061255e565b1590506125b657816040820151105b5f612558565b816040820151116125b0565b6125d79192503d8087833e610a048183613fae565b905f61253b565b50346102ec5760403660031901126102ec576004356125fb6140e8565b90612604614d59565b808352600c60205261261f60ff600b604086200154166146f1565b808352600c60205261264160018060a01b03600160408620015416331461473a565b808352600c602052604083206001810154909290612669906001600160a01b0316331461473a565b600b83019081549061267d60ff83166146f1565b60ff8260081c166126e7577f39f802a5aa09b329f1a54793e2e5fe3eb22de97765b5483050e1fefce362b98c9261010060409361ff00191617905560026007860154956126cf845180938193016148c4565b03902094825191151582526020820152a36001815580f35b60405162461bcd60e51b815260206004820152602660248201527f536861646546583a206f70656e20696e74657265737420616c726561647920756044820152651c19185d195960d21b6064820152608490fd5b50346102ec5760203660031901126102ec57600435612758614d59565b612760614d77565b801561289a576040516370a0823160e01b81523360048201526020816024815f5160206158e25f395f51905f525afa80156111515782908490612864575b6127aa9250101561457e565b6127b5813033614d92565b60055480612844576127c88280926142dc565b6005556127d7826006546142dc565b6006553383526009602052604083206127f18282546142dc565b9055338352600a6020526040832061280a8382546142dc565b905560405191825260208201527fac1d76749e5447b7b16f5ab61447e1bd502f3bb4807af3b28e620d1700a6ee4560403392a26001815580f35b6127c88261285e61285584836142ab565b600654906142be565b926142dc565b50506020813d602011612892575b8161287f60209383613fae565b81010312610d5057816127aa915161279e565b3d9150612872565b60405162461bcd60e51b815260206004820152601760248201527614da18591951960e881a5b9d985b1a5908185b5bdd5b9d604a1b6044820152606490fd5b50346102ec57806003193601126102ec576128f2614fc5565b6128fa614d77565b600160ff19815416176001557f62e78cea01bee320cd4e420270b5ea74000d11b0c9f74754ebdbfc544b05a2586020604051338152a17f3e57324ebc928dc97e854b615371af91a7a504fc11ceca59a720828c0f1ec5f08180a180f35b50346102ec5760203660031901126102ec57600435612974614d59565b808252600f602052604082206001810180549192916001600160a01b03163303612a37576003830160ff815460081c166004811015612a2357906129bc6129de93921561492e565b805461ff001916610200179055546006840154906001600160a01b0316614f90565b7ff2820c9274d611a15d979823ac23bb965c1972a808eebd952297d9bd3a60f4b86040516020815280612a19339560026020840191016141b5565b0390a36001815580f35b634e487b7160e01b86526021600452602486fd5b60405162461bcd60e51b815260206004820152601860248201527729b430b232a32c1d103737ba1037b93232b91037bbb732b960411b6044820152606490fd5b50346102ec57806003193601126102ec57612a90614fc5565b60015460ff811615612af45760ff19166001557f5db9ee0a495bf2e6ff9c91a7834c1ba4fdd244a5e8aa4e537bd38aeae4b073aa6020604051338152a17fca6fb755568ad0528a4c4d7dcc83bcdf8088d4f25e0e744bdd3b034df23a9b2b8180a180f35b638dfc202b60e01b8252600482fd5b50346102ec5780612b1336614131565b9060018060a01b03600b541690813b15610a92578391612b529183604051809681958294632521952360e11b8452604060048501526044840190614236565b90602483015203925af18015610452576105475750f35b50346102ec5760403660031901126102ec57612b836140e8565b612b8b614d59565b612b93614d77565b6004358252600c602052612bb060ff600b604085200154166146f1565b6004358252600c602052612bd460018060a01b03600160408520015416331461473a565b6004358252600c602052604082206001810154909190612bfe906001600160a01b0316331461473a565b600b82015491612c1060ff84166146f1565b600b54604051630b8a540560e31b8152602060048201529290859084906001600160a01b03168180612c4860248201600289016141b5565b03915afa928315610d12578593612eb9575b50612c6f61012c6106e460608601514261426e565b600882015493612710612c84600454876142ab565b049182600e850155612ca3816040870151612c9e876147cb565b614a4d565b9586888112612e8857612cb5916142dc565b8380821115612e8057612cc79161426e565b915b60ff8160081c1615612e31575b5015612e08576101408401805160078501548892918111612e015781612cfe9293505161426e565b90525b600780549084018054839210612df857612d1e815460075461426e565b6007555b5481811015612de1575b5050612d3a826008546142dc565b600855600b8301805460ff19169055600e830182905580612dc3575b6002604060018060a01b0360018601541695015193612d7b60405180938193016148c4565b039020946040519384526020840152604083015260608201527f502fb0b0de5430f8e3cd702ef063eed48c7d76ff9b08a0156f8dd6f37983f4cd608060043592a46001815580f35b6001830154612ddc9082906001600160a01b0316614f90565b612d56565b612dee916108bf9161426e565b600655805f612d2c565b87600755612d22565b5052612d01565b6101608401805160078501548892918111612e015781612e2a9293505161426e565b9052612d01565b610100908215612e64576007860154612e5061014089019182516142dc565b90525b61ff00191617600b8501555f612cd6565b6007860154612e7961016089019182516142dc565b9052612e53565b505086612cc7565b84612e95612e9a926148a3565b6142dc565b818110612eaa5750508691612cc9565b612eb39161426e565b91612cc9565b612ece9193503d8087833e610a048183613fae565b915f612c5a565b50346102ec5760203660031901126102ec57600435612ef2614d59565b612efa614d77565b808252600c602052612f1560ff600b604085200154166146f1565b808252600c602052612f3760018060a01b03600160408520015416331461473a565b8152600c602052612f878160408120612f5660ff600b830154166146f1565b60018060a01b03600b54166040518080958194630b8a540560e31b83526020600484015260026024840191016141b5565b03915afa90811561045257606061012c926106e49285612fb19692613028575b505001514261426e565b60405162461bcd60e51b815260206004820152604360248201527f536861646546583a2055736520636865636b53746f704c6f737357697468446560448201527f6372797074656456616c7565732077697468206465637279707465642076616c60648201526275657360e81b608482015260a490fd5b61303c92503d8091833e610a048183613fae565b5f80612fa7565b50346102ec5760203660031901126102ec57806004356001600160401b03811161055a57613075903690600401614022565b600b546001600160a01b0316803b156105585760405163377c5cbf60e01b8152602060048201529183918391829084908290610a81906024830190614236565b50346102ec57602090816130c836614131565b9390604051928184925191829101835e810160118152030190209081548310156102ec576020611f628484614086565b50346102ec5760203660031901126102ec576001600160a01b0361311a614070565b168152600d60205260408120604051918260208354918281520192825260208220915b818110613154576121b9856121ad81870382613fae565b825484526020909301926001928301920161313d565b50346102ec57806003193601126102ec576020601254604051908152f35b50346102ec5760203660031901126102ec57604060a0916004358152601460205220805490600180841b0360018201541690600281015460ff60046003840154930154169260405194855260208501526040840152606083015215156080820152f35b50346102ec5760203660031901126102ec576004356001600160401b0381116114235761321c903690600401614022565b613224614d59565b61322c614d77565b600b54604051630b8a540560e31b81526020600482015290839082906001600160a01b031681806132606024820188614236565b03915afa90811561115157613283916101009185916134e55750015115156144e1565b604051602081835180838601835e810160118152030190206040518082602082945493848152019086526020862092865b8181106134cc5750506132c992500382613fae565b8290835b81518110156133fa576132e0818361425a565b51808652600f6020526040862060038101805460ff8160081c166004811015610eb8571590816133cf575b5061331e575b5050506001905b016132cd565b600982015480151590816133c4575b5061335e57505061333d90614de9565b61334a575b5f8080613311565b916133566001916146c4565b929050613342565b916001939261030061ff00198254161790555f5160206159225f395f51905f526133bc85840161339b878060a01b03825416600687015490614f90565b868060a01b03905416936040519182916020835260026020840191016141b5565b0390a3613318565b90504210155f61332d565b60ff91501660028110156133e6576001145f61330b565b634e487b7160e01b89526021600452602489fd5b5050613409575b506001815580f35b600b5460405163524f388960e01b815260206004820152919060609083906001600160a01b0316818061343f6024820187614236565b03915afa918215611151578392613485575b50606061346b5f5160206159e25f395f51905f52926146a8565b92604051908082526020820152426040820152a25f613401565b5f5160206159e25f395f51905f5291925061346b6134ba606092833d85116134c5575b6134b28183613fae565b8101906146d2565b505093925050613451565b503d6134a8565b84548352600194850194869450602090930192016132b4565b611eb391503d8087833e610a048183613fae565b50346102ec57806003193601126102ec57600b546040516001600160a01b039091168152602090f35b50346102ec5760e03660031901126102ec576004356001600160401b03811161142357613553903690600401614022565b906044356001600160401b03811161142357613573903690600401614104565b61357b614d59565b613583614d77565b600b54604051630b8a540560e31b8152602060048201526001600160a01b03909116908481806135b6602482018a614236565b0381855afa908115610d12576135da91610100918791613af25750015115156144e1565b60643515613ab4576135f3624c4b4060a4351015614528565b6040516370a0823160e01b81523360048201526020816024815f5160206158e25f395f51905f525afa8015610d12578590613a80575b613638915060a435111561457e565b6001608435101580613a72575b61364e906145d5565b836040518092630b8a540560e31b8252602060048301528180613674602482018b614236565b03915afa908115610d5c5761369a9160c0918691613a58575b500151608435111561461d565b60c435158015613a4d575b15613a09576136b9916118f6913691613fec565b916136c43084615716565b6136ce3384615716565b6136db60a4353033614d92565b6012546040519361016085016001600160401b038111868210176139f5576040908152828652336020808801918252878301868152600160608a0181905260808a0189905260a08a019590955260643560c08a015260a43560e08a01526084356101008a0152426101208a015260c4356101408a0152948752600f905290852086518155905191810180546001600160a01b0319166001600160a01b03939093169290921790915590518051906001600160401b0382116139f55781906137a5600285015461417d565b601f81116139a5575b50602090601f831160011461393d578692613932575b50508160011b915f199060031b1c19161760028201555b600381016060850151600281101561391e5760ff801983541691161781556080850151600481101561391e576138f294956009926101409261ff0082549160081b169061ff00191617905560a0810151600485015560c0810151600585015560e0810151600685015561010081015160078501556101208101516008850155015191015533835260106020526138776040842060125490614674565b61389b604051602081845180838701835e8101601181520301902060125490614674565b6138a7601254916146a8565b60405160018152606435602082015260a43560408201526084356060820152827f1142c767294fc09e00b1c0d6db05c2648a683335dfe485a7375b945728b80b1060803393a46146c4565b806012555f19810190811161390a5761340190614de9565b634e487b7160e01b82526011600452602482fd5b634e487b7160e01b85526021600452602485fd5b015190505f806137c4565b6002850187528187209250601f198416875b81811061398d5750908460019594939210613975575b505050811b0160028201556137db565b01515f1960f88460031b161c191690555f8080613965565b9293602060018192878601518155019501930161394f565b90915060028401865260208620601f840160051c8101602085106139ee575b90849392915b601f830160051c820181106139e05750506137ae565b8881558594506001016139ca565b50806139c4565b634e487b7160e01b85526041600452602485fd5b60405162461bcd60e51b815260206004820152601c60248201527b536861646546583a20696e76616c6964206578706972792074696d6560201b6044820152606490fd5b504260c435116136a5565b613a6c91503d8088833e610a048183613fae565b5f61368d565b506002546084351115613645565b506020813d602011613aac575b81613a9a60209383613fae565b81010312610d50576136389051613629565b3d9150613a8d565b60405162461bcd60e51b8152602060048201526016602482015275536861646546583a20696e76616c696420707269636560501b6044820152606490fd5b611eb391503d8089833e610a048183613fae565b50346102ec5760603660031901126102ec576020611417613b256140e8565b6044359060043561431e565b50346102ec57806003193601126102ec576020600354604051908152f35b50346102ec5760203660031901126102ec576004356001600160401b038111611423576020613b8381923690600401614022565b604051928184925191829101835e81016011815203019020604051918260208354918281520192825260208220915b818110613bc9576121b9856121ad81870382613fae565b8254845260209093019260019283019201613bb2565b50346102ec5760603660031901126102ec576004356001600160401b03811161142357613c10903690600401614022565b906024356001600160a01b038116810361142357604051835160443594602091839181908401835e8101600e8152030190209060018060a01b03165f5260205260405f209081548310156102ec576020611f628484614086565b506080366003190112610d5057600435906001600160401b038211610d505736602383011215610d50576004820135916001600160401b038311613f7e578260051b906020820193613cbf6040519586613fae565b845260208401906024829382010190368211610d505760248101925b828410613f4f5750506024359150506001600160401b038111610d5057613d06903690600401614040565b906044356001600160401b038111610d5057613d26903690600401614040565b6064356001600160401b038111610d5057613d45903690600401614040565b600b546001600160a01b0316959194909391863b15610d5057969060405197630fab71e960e01b895260848901608060048b01528b5180915260a48a019060a48160051b8c010194915f905b8c838310613f1e5750505050506003198984030160248a0152808352602083019060208160051b85010193835f91601e1982360301905b848410613eb35750505050508883036003190160448a015250508281526001600160fb1b038311610d5057906040918795949360051b80926020830137018260208201600319602088850301016064880152520191905f905b808210613e83575050509181805f94039134905af18015613e7857613e65575b50805b8251811015613e615780613e5a6001928561425a565b5001613e44565b5080f35b613e7191505f90613fae565b5f5f613e41565b6040513d5f823e3d90fd5b9193509183356001600160401b0381169190829003610d5057602081600193829352019401920185939291613e21565b90919293949596601f19828203018752873583811215610d50578401602081019190356001600160401b038111610d50578036038313610d50576020828280600196849695859652848401375f828201840152601f01601f1916010199019701959401929190613dc8565b6020613f3e600193949596979899829360a3199082030186528851614236565b989796019493919091019101613d91565b83356001600160401b038111610d5057602091613f73839260243691870101614022565b815201930192613cdb565b634e487b7160e01b5f52604160045260245ffd5b61020081019081106001600160401b03821117613f7e57604052565b601f909101601f19168101906001600160401b03821190821017613f7e57604052565b6001600160401b038111613f7e57601f01601f191660200190565b929192613ff882613fd1565b916140066040519384613fae565b829481845281830111610d50578281602093845f960137010152565b9080601f83011215610d505781602061403d93359101613fec565b90565b9181601f84011215610d50578235916001600160401b038311610d50576020808501948460051b010111610d5057565b600435906001600160a01b0382168203610d5057565b805482101561409b575f5260205f2001905f90565b634e487b7160e01b5f52603260045260245ffd5b60206040818301928281528451809452019201905f5b8181106140d25750505090565b82518452602093840193909201916001016140c5565b602435908115158203610d5057565b35908115158203610d5057565b9181601f84011215610d50578235916001600160401b038311610d505760208381860195010111610d5057565b6040600319820112610d5057600435906001600160401b038211610d505761415b91600401614022565b9060243590565b34610d50575f366003190112610d5057602060405160058152f35b90600182811c921680156141ab575b602083101461419757565b634e487b7160e01b5f52602260045260245ffd5b91607f169161418c565b5f92918154916141c48361417d565b808352926001811690811561421957506001146141e057505050565b5f9081526020812093945091925b8383106141ff575060209250010190565b6001816020929493945483858701015201910191906141ee565b915050602093945060ff929192191683830152151560051b010190565b805180835260209291819084018484015e5f828201840152601f01601f1916010190565b805182101561409b5760209160051b010190565b9190820391821161427b57565b634e487b7160e01b5f52601160045260245ffd5b906304c4b4008202918083046304c4b400149015171561427b57565b8181029291811591840414171561427b57565b81156142c8570490565b634e487b7160e01b5f52601260045260245ffd5b9190820180921161427b57565b6142f28161428f565b6305f5e1008302928084046305f5e100149015171561427b5761403d92614318916142be565b9061426e565b901561432d576142f28161428f565b6143368161428f565b6305f5e1008302928084046305f5e100149015171561427b5761403d9261435c916142be565b906142dc565b81601f82011215610d505780519061437982613fd1565b926143876040519485613fae565b82845260208383010111610d5057815f9260208093018386015e8301015290565b51908115158203610d5057565b602081830312610d50578051906001600160401b038211610d5057016101c081830312610d5057604051916101c083016001600160401b03811184821017613f7e5760405281516001600160401b038111610d505781614416918401614362565b835260208201516001600160401b038111610d505781614437918401614362565b602084015260408201516040840152606082015160608401526080820151608084015260a082015160a084015260c082015160c084015260e082015160e084015261448561010083016143a8565b6101008401526101208201516101208401526101408201516101408401526101608201516101608401526101808201516101808401526101a082015160018060401b038111610d50576144d89201614362565b6101a082015290565b156144e857565b60405162461bcd60e51b8152602060048201526018602482015277536861646546583a2070616972206e6f742061637469766560401b6044820152606490fd5b1561452f57565b60405162461bcd60e51b815260206004820152602160248201527f536861646546583a20636f6c6c61746572616c2062656c6f77206d696e696d756044820152606d60f81b6064820152608490fd5b1561458557565b60405162461bcd60e51b815260206004820152602260248201527f536861646546583a20696e73756666696369656e7420555344432062616c616e604482015261636560f01b6064820152608490fd5b156145dc57565b60405162461bcd60e51b8152602060048201526019602482015278536861646546583a20696e76616c6964206c6576657261676560381b6044820152606490fd5b1561462457565b60405162461bcd60e51b815260206004820152602260248201527f536861646546583a206c6576657261676520657863656564732070616972206d6044820152610c2f60f31b6064820152608490fd5b8054600160401b811015613f7e5761469191600182018155614086565b819291549060031b91821b915f19901b1916179055565b602090604051918183925191829101835e81015f815203902090565b5f19811461427b5760010190565b90816060910312610d505780519161403d6040602084015193016143a8565b156146f857565b60405162461bcd60e51b815260206004820152601a60248201527929b430b232a32c1d103837b9b4ba34b7b7103737ba1037b832b760311b6044820152606490fd5b1561474157565b60405162461bcd60e51b815260206004820152601b60248201527a29b430b232a32c1d103737ba103837b9b4ba34b7b71037bbb732b960291b6044820152606490fd5b1561478b57565b60405162461bcd60e51b8152602060048201526018602482015277536861646546583a20707269636520746f6f207374616c6560401b6044820152606490fd5b906040516147d881613f92565b6101e0600e82948054845260018060a01b0360018201541660208501526040516148108161480981600286016141b5565b0382613fae565b60408501526003810154606085015260048101546080850152600581015460a0850152600681015460c0850152600781015460e085015260088101546101008501526009810154610120850152600a81015461014085015260ff600b820154818116151561016087015260081c161515610180850152600c8101546101a0850152600d8101546101c08501520154910152565b600160ff1b811461427b575f0390565b9060ff801983541691151516179055565b5f92918154916148d38361417d565b926001811690811561491b57506001146148ec57505050565b90919293505f5260205f205f905b8382106149075750500190565b6001816020925484860152019101906148fa565b60ff191683525050811515909102019150565b1561493557565b60405162461bcd60e51b815260206004820152601a602482015279536861646546583a206f72646572206e6f742070656e64696e6760301b6044820152606490fd5b6001600160a01b039091168152901515602082015260400190565b1561499957565b60405162461bcd60e51b815260206004820152601f60248201527f536861646546583a20696e73756666696369656e74206c6971756964697479006044820152606490fd5b9192608093969594919660a084019784526020840152604083015260608201520152565b15614a0957565b606460405162461bcd60e51b815260206004820152602060248201527f536861646546583a20636f6e7472616374206d757374206265207061757365646044820152fd5b916101c0919015614ab15760c08301805180831115614a97575061072c610721614a799383519061426e565b915b0151905f828203921281831281169183139015161761427b5790565b9061072c6109ab614aab946109b69461426e565b91614a7b565b60c08301805180831015614ad1575061072c610721614aab93835161426e565b9061072c6109ab6109b693614aab9561426e565b805f52600f60205260405f20906003820190815460ff8160081c16906004821015610d6757614b1660ff921561492e565b166002811015610d6757600103614cfc57600b54604051630b8a540560e31b8152602060048201526002850193915f9082906001600160a01b03168180614b60602482018a6141b5565b03915afa908115613e7857614b8391610100915f91614ce85750015115156144e1565b60098401548015159081614cdd575b50614c765750614ba18161501e565b9182614bae575b50505050565b600b5460405163524f388960e01b815260206004820152949060609086906001600160a01b03168180614be460248201886141b5565b03915afa948515613e78575f95614c3e575b5060010154604080518181526001600160a01b03909216955f5160206159425f395f51905f52938392614c2c91908401906141b5565b9060208301520390a45f808080614ba8565b614c2c91955091614c6b5f5160206159425f395f51905f529360603d6060116134c5576134b28183613fae565b505095915091614bf6565b805461ff001916610300179055600183018054600690940154929391925f5160206159225f395f51905f5292614cd89291614cb9916001600160a01b0316614f90565b60018060a01b03905416936040519182916020835260208301906141b5565b0390a3565b90504210155f614b92565b611eb391503d805f833e610a048183613fae565b60405162461bcd60e51b815260206004820152601a60248201527929b430b232a32c1d103737ba1030903634b6b4ba1037b93232b960311b6044820152606490fd5b6001600160a01b039091168152602081019190915260400190565b60025f5414614d685760025f55565b633ee5aeb560e01b5f5260045ffd5b60ff60015416614d8357565b63d93c066560e01b5f5260045ffd5b6040516323b872dd60e01b60208201526001600160a01b03918216602482015291166044820152606480820192909252908152614de790614dd4608482613fae565b5f5160206158e25f395f51905f52615759565b565b805f52600f60205260405f209060038201805460ff8160081c166004811015610d67571590811591614f78575b50614ee45760098301548015159081614f6d575b50614f055750600b54604051630b8a540560e31b815260206004820152919291905f9082906001600160a01b03168180614e6a60248201600289016141b5565b03915afa908115613e78575f91614eeb575b5061010081015115614ee4576040600591015191015490818082115f14614ed457614ea69161426e565b905b60648102908082046064149015171561427b5761271090041015614ecb57505f90565b61403d9061501e565b90614ede9161426e565b90614ea8565b5050505f90565b614eff91503d805f833e610a048183613fae565b5f614e7c565b805461ff00191661030017905560018201805460068401545f5160206159225f395f51905f5292614f66929091614f44916001600160a01b0316614f90565b60018060a01b03905416936040519182916020835260026020840191016141b5565b0390a35f90565b90504210155f614e2a565b60ff9150166002811015610d6757600114155f614e16565b90614dd4614de792614fb760405193849263a9059cbb60e01b602085015260248401614d3e565b03601f198101835282613fae565b60015460081c6001600160a01b03163303614fdc57565b63118cdaa760e01b5f523360045260245ffd5b46600103614ffc57600190565b4662aa36a70361500c5761271190565b617a694614615019575f90565b5f1990565b5f52600f60205260405f20906003820160ff815460081c166004811015610d67576155f857600b54604051630b8a540560e31b81526020600482015291905f9083906001600160a01b0316818061507b6024820160028b016141b5565b03915afa918215613e78575f926155dc575b5061509e61010083015115156144e1565b6150b261012c6106e460608501514261426e565b61010061ff00198254161790556006830154906150d36007850154836142ab565b6127106150e2600354856142ab565b04906150f2816006541015614992565b600486015495615101876157b1565b60078101545f5160206159025f395f51905f5254604051639cd07acb60e01b815263ffffffff9290921660048301529097906001600160a01b0316886044815f602094600460248401525af1978815613e78575f986155a8575b506151663089615716565b61516f886157b1565b600b5460405163524f388960e01b8152602060048201529060609082906001600160a01b031681806151a76024820160028a016141b5565b03915afa908115613e78575f91615587575b5060078301546151c8916142e9565b906151d1615864565b916151dc3084615716565b6151e5836157b1565b60135490600160a01b60019003600186015416936040890151600787015491604051809e61521282613f92565b86825260208201988952604051978861522e8160028e016141b5565b03615239908a613fae565b604083019889526060830152608082015260a0015260c08d01528660e08d0152896101008d01526101208c0152426101408c01526101608b01600190526101808b015f90526101a08b0152856101c08b01526101e08a015f90525f52600c60205260405f209189518355600160a01b600190039051166001830190600160a01b6001900316600160a01b600190031982541617905551978851600160401b600190038111613f7e576152ee600284015461417d565b601f811161553f575b506020601f82116001146154ba575f5160206159c25f395f51905f529594939282600e936101e09361549d9d9e5f926154af575b50508160011b915f199060031b1c19161760028501555b606081015160038501556080810151600485015560a0810151600585015560c0810151600685015560e0810151600785015561010081015160088501556101208101516009850155610140810151600a8501556153ad600b8501611bff6101608401511515826148b3565b6101a0810151600c8501556101c0810151600d850155015191015560018060a01b036001820154165f52600d6020526153ec60405f2060135490614674565b6040516020816153ff81600286016148c4565b600e81520301902060018201546001600160a01b03165f9081526020919091526040902060135461542f91614674565b61543b8260065461426e565b60065561544a826007546142dc565b600755615459846008546142dc565b600855601354968794604060018060a01b0360018501541697015192600260078201549161548d60405180938193016148c4565b03902098604051958695866149de565b0390a46154a9816146c4565b60135590565b015190505f8061532b565b600284015f52805f209a5f5b601f198416811061552757509260018361549d9c9d6101e0945f5160206159c25f395f51905f529a999897600e97601f1981161061550f575b505050811b016002850155615342565b01515f1960f88460031b161c191690555f80806154ff565b828201518d556001909c019b602092830192016154c6565b600284015f5260205f20601f830160051c8101916020841061557d575b601f0160051c01905b81811061557257506152f7565b5f8155600101615565565b909150819061555c565b6155a0915060603d6060116134c5576134b28183613fae565b50505f6151b9565b9097506020813d6020116155d4575b816155c460209383613fae565b81010312610d505751965f61515b565b3d91506155b7565b6155f19192503d805f833e610a048183613fae565b905f61508d565b505f9150565b9081526001600160a01b03909116602082015260400190565b919061565e60018060a01b035f5160206159025f395f51905f525416916040519463045fc19560e11b86526004860152336024860152608060448601526084850190614236565b602091845f81809482606483015203925af1918215613e78575f926156e2575b505f5160206159a25f395f51905f525482906001600160a01b0316803b15610d5057604051630f8e573b60e21b8152915f9183918290849082906156c7903390600484016155fe565b03925af18015613e78576156d85750565b5f614de791613fae565b9091506020813d60201161570e575b816156fe60209383613fae565b81010312610d505751905f61567e565b3d91506156f1565b5f5160206159a25f395f51905f52546001600160a01b031691823b15610d50576156c7925f9283604051809681958294635ca4b5b160e11b8452600484016155fe565b905f602091828151910182855af115613e78575f513d6157a857506001600160a01b0381163b155b6157885750565b635274afe760e01b5f9081526001600160a01b0391909116600452602490fd5b60011415615781565b60408051916157c08284613fae565b600183526020830190601f19830136833783511561409b5781525f5160206159a25f395f51905f52546001600160a01b031690813b15610d50578251637d6e912360e11b815260206004820152935160248501819052849160448301915f5b81811061584b5750505091815f81819503925af190811561584257506156d85750565b513d5f823e3d90fd5b825184528794506020938401939092019160010161581f565b5f5160206159025f395f51905f5254604051639cd07acb60e01b81525f6004820152906001600160a01b0316816044815f602094600560248401525af1908115613e78575f916158b2575090565b90506020813d6020116158d9575b816158cd60209383613fae565b81010312610d50575190565b3d91506158c056fe0000000000000000000000001c7d4b196cb0c7b01d743fbc6116a902379c72389e7b61f58c47dc699ac88507c4f5bb9f121c03808c5676a8078fe583e4649701f92ae6fba462f697bc4c0f07330419920454a9dfa314d50004546efdd1a0c08028f1262cbd026595c2c213087e15a944fa1730585061108eb75fe3a91c22f72b8be0079c531659141344cd1fd0a4f28419497f9722a3daafe3b4186f6b6457e05fafa99d0643513820be26656b45130b01e1c03062e1266bf36f88cbd3bd96959e7b61f58c47dc699ac88507c4f5bb9f121c03808c5676a8078fe583e4649700ec5654ea8cb3a697e1d2819570c0909261e332e5c76f4cdaab67b68377060075b9eff63454e8f3e7e3a0591926665ec3da6f4d9d4072630ddac1bb0b9836d506a164736f6c634300081b000a",
  "linkReferences": {},
  "deployedLinkReferences": {}
}